{
  "address": "0x5FbDB2315678afecb367f032d93F642f64180aa3",
  "abi": [
    {
      "inputs": [
        {
          "internalType": "address",
          "name": "_platformWallet",
          "type": "address"
        },
        {
          "internalType": "uint256",
          "name": "interval",
          "type": "uint256"
        },
        {
          "internalType": "uint256",
          "name": "price",
          "type": "uint256"
        }
      ],
      "stateMutability": "nonpayable",
      "type": "constructor"
    },
    {
      "inputs": [
        {
          "internalType": "uint256",
          "name": "currentBalance",
          "type": "uint256"
        },
        {
          "internalType": "uint256",
          "name": "numPlayers",
          "type": "uint256"
        },
        {
          "internalType": "uint256",
          "name": "raffleState",
          "type": "uint256"
        }
      ],
      "name": "Milestones__UpkeepNotNeeded",
      "type": "error"
    },
    {
      "anonymous": false,
      "inputs": [
        {
          "indexed": true,
          "internalType": "address",
          "name": "user",
          "type": "address"
        },
        {
          "indexed": false,
          "internalType": "uint256",
          "name": "totalAmount",
          "type": "uint256"
        }
      ],
      "name": "AllFundsWithdrawn",
      "type": "event"
    },
    {
      "anonymous": false,
      "inputs": [
        {
          "indexed": false,
          "internalType": "address",
          "name": "creator",
          "type": "address"
        }
      ],
      "name": "BalanceCreated",
      "type": "event"
    },
    {
      "anonymous": false,
      "inputs": [
        {
          "indexed": false,
          "internalType": "address",
          "name": "creator",
          "type": "address"
        }
      ],
      "name": "BalanceUpdated",
      "type": "event"
    },
    {
      "anonymous": false,
      "inputs": [
        {
          "indexed": true,
          "internalType": "address",
          "name": "creator",
          "type": "address"
        },
        {
          "indexed": false,
          "internalType": "uint256",
          "name": "amount",
          "type": "uint256"
        }
      ],
      "name": "CreatorsWithdrawl",
      "type": "event"
    },
    {
      "anonymous": false,
      "inputs": [
        {
          "indexed": true,
          "internalType": "address",
          "name": "user",
          "type": "address"
        },
        {
          "indexed": false,
          "internalType": "uint256",
          "name": "amount",
          "type": "uint256"
        }
      ],
      "name": "FundsLocked",
      "type": "event"
    },
    {
      "anonymous": false,
      "inputs": [
        {
          "indexed": true,
          "internalType": "address",
          "name": "user",
          "type": "address"
        },
        {
          "indexed": false,
          "internalType": "uint256",
          "name": "milestone",
          "type": "uint256"
        },
        {
          "indexed": false,
          "internalType": "uint256",
          "name": "amountReleased",
          "type": "uint256"
        }
      ],
      "name": "MilestoneCompleted",
      "type": "event"
    },
    {
      "anonymous": false,
      "inputs": [
        {
          "indexed": true,
          "internalType": "address",
          "name": "creator",
          "type": "address"
        },
        {
          "indexed": false,
          "internalType": "uint256",
          "name": "amount",
          "type": "uint256"
        }
      ],
      "name": "OwnersWithdrawl",
      "type": "event"
    },
    {
      "anonymous": false,
      "inputs": [
        {
          "indexed": false,
          "internalType": "uint256",
          "name": "amount",
          "type": "uint256"
        }
      ],
      "name": "PriceChange",
      "type": "event"
    },
    {
      "anonymous": false,
      "inputs": [
        {
          "indexed": false,
          "internalType": "address",
          "name": "creator",
          "type": "address"
        },
        {
          "indexed": false,
          "internalType": "string",
          "name": "product",
          "type": "string"
        }
      ],
      "name": "ProductCreated",
      "type": "event"
    },
    {
      "inputs": [
        {
          "internalType": "uint256",
          "name": "amount",
          "type": "uint256"
        }
      ],
      "name": "changeMileStonePrice",
      "outputs": [],
      "stateMutability": "nonpayable",
      "type": "function"
    },
    {
      "inputs": [
        {
          "internalType": "bytes",
          "name": "",
          "type": "bytes"
        }
      ],
      "name": "checkUpkeep",
      "outputs": [
        {
          "internalType": "bool",
          "name": "upkeepNeeded",
          "type": "bool"
        },
        {
          "internalType": "bytes",
          "name": "",
          "type": "bytes"
        }
      ],
      "stateMutability": "view",
      "type": "function"
    },
    {
      "inputs": [
        {
          "internalType": "string",
          "name": "productId",
          "type": "string"
        }
      ],
      "name": "completeMilestone",
      "outputs": [],
      "stateMutability": "nonpayable",
      "type": "function"
    },
    {
      "inputs": [
        {
          "internalType": "string",
          "name": "productId",
          "type": "string"
        }
      ],
      "name": "createProduct",
      "outputs": [],
      "stateMutability": "nonpayable",
      "type": "function"
    },
    {
      "inputs": [
        {
          "internalType": "uint256",
          "name": "amount",
          "type": "uint256"
        }
      ],
      "name": "creatorsWithdrawl",
      "outputs": [],
      "stateMutability": "nonpayable",
      "type": "function"
    },
    {
      "inputs": [],
      "name": "getBalance",
      "outputs": [
        {
          "components": [
            {
              "internalType": "address",
              "name": "creator",
              "type": "address"
            },
            {
              "internalType": "uint256",
              "name": "balance",
              "type": "uint256"
            },
            {
              "internalType": "string[]",
              "name": "identifier_list",
              "type": "string[]"
            }
          ],
          "internalType": "struct CreatorEconomy.Creator_balance",
          "name": "",
          "type": "tuple"
        }
      ],
      "stateMutability": "view",
      "type": "function"
    },
    {
      "inputs": [],
      "name": "getCurrentTimestamp",
      "outputs": [
        {
          "internalType": "uint256",
          "name": "",
          "type": "uint256"
        }
      ],
      "stateMutability": "view",
      "type": "function"
    },
    {
      "inputs": [],
      "name": "getIdentifiers",
      "outputs": [
        {
          "internalType": "string[]",
          "name": "",
          "type": "string[]"
        }
      ],
      "stateMutability": "view",
      "type": "function"
    },
    {
      "inputs": [],
      "name": "getOwnerBalance",
      "outputs": [
        {
          "internalType": "uint256",
          "name": "",
          "type": "uint256"
        }
      ],
      "stateMutability": "view",
      "type": "function"
    },
    {
      "inputs": [],
      "name": "getPrice",
      "outputs": [
        {
          "internalType": "uint256",
          "name": "",
          "type": "uint256"
        }
      ],
      "stateMutability": "view",
      "type": "function"
    },
    {
      "inputs": [
        {
          "internalType": "string",
          "name": "productId",
          "type": "string"
        }
      ],
      "name": "getUserMilestoneDetails",
      "outputs": [
        {
          "components": [
            {
              "internalType": "address",
              "name": "creator",
              "type": "address"
            },
            {
              "internalType": "uint256",
              "name": "totalMilestones",
              "type": "uint256"
            },
            {
              "internalType": "uint256",
              "name": "totalAmount",
              "type": "uint256"
            },
            {
              "internalType": "uint256",
              "name": "milestoneCompleted",
              "type": "uint256"
            },
            {
              "internalType": "uint256",
              "name": "amountWithdrawn",
              "type": "uint256"
            },
            {
              "internalType": "uint256",
              "name": "createdAt",
              "type": "uint256"
            },
            {
              "internalType": "bool",
              "name": "isCompleted",
              "type": "bool"
            },
            {
              "internalType": "uint256",
              "name": "endsAt",
              "type": "uint256"
            },
            {
              "internalType": "string",
              "name": "product",
              "type": "string"
            }
          ],
          "internalType": "struct CreatorEconomy.Milestone",
          "name": "",
          "type": "tuple"
        }
      ],
      "stateMutability": "view",
      "type": "function"
    },
    {
      "inputs": [
        {
          "internalType": "string",
          "name": "productId",
          "type": "string"
        },
        {
          "internalType": "string",
          "name": "identifier",
          "type": "string"
        }
      ],
      "name": "lockFunds",
      "outputs": [],
      "stateMutability": "payable",
      "type": "function"
    },
    {
      "inputs": [
        {
          "internalType": "uint256",
          "name": "amount",
          "type": "uint256"
        }
      ],
      "name": "ownersWithdrawl",
      "outputs": [],
      "stateMutability": "nonpayable",
      "type": "function"
    },
    {
      "inputs": [
        {
          "internalType": "bytes",
          "name": "",
          "type": "bytes"
        }
      ],
      "name": "performUpkeep",
      "outputs": [],
      "stateMutability": "nonpayable",
      "type": "function"
    }
  ],
  "transactionHash": "0xaaed1a973224767064b56c3aa151998896754539a059806b30f400c5060b6110",
  "args": [
    "0xf39Fd6e51aad88F6F4ce6aB8827279cffFb92266",
    259200,
    "10000000000000"
  ],
  "numDeployments": 1,
  "solcInputHash": "6f00ea043137dd38d6cf9e535297dc20",
  "bytecode": "0x60a060405234801561001057600080fd5b50604051614197380380614197833981810160405281019061003291906101a1565b600073ffffffffffffffffffffffffffffffffffffffff168373ffffffffffffffffffffffffffffffffffffffff16036100a1576040517f08c379a000000000000000000000000000000000000000000000000000000000815260040161009890610251565b60405180910390fd5b82600460006101000a81548173ffffffffffffffffffffffffffffffffffffffff021916908373ffffffffffffffffffffffffffffffffffffffff160217905550600060038190555042600781905550816080818152505080600881905550505050610271565b600080fd5b600073ffffffffffffffffffffffffffffffffffffffff82169050919050565b60006101388261010d565b9050919050565b6101488161012d565b811461015357600080fd5b50565b6000815190506101658161013f565b92915050565b6000819050919050565b61017e8161016b565b811461018957600080fd5b50565b60008151905061019b81610175565b92915050565b6000806000606084860312156101ba576101b9610108565b5b60006101c886828701610156565b93505060206101d98682870161018c565b92505060406101ea8682870161018c565b9150509250925092565b600082825260208201905092915050565b7f496e76616c696420706c6174666f726d2077616c6c6574000000000000000000600082015250565b600061023b6017836101f4565b915061024682610205565b602082019050919050565b6000602082019050818103600083015261026a8161022e565b9050919050565b608051613f0b61028c60003960006114f30152613f0b6000f3fe6080604052600436106100dd5760003560e01c80636c9230db1161007f57806398d5fdca1161005957806398d5fdca146102ab578063a4770a88146102d6578063ba4be20b14610301578063ffcd186a1461031d576100dd565b80636c9230db146102195780636e04ff0d146102445780638dd8fc0e14610282576100dd565b806312065fe0116100bb57806312065fe0146101715780634585e33b1461019c5780634e2de673146101c5578063590791f2146101ee576100dd565b8063019b61ed146100e257806302ec06be1461011f57806304afe05f14610148575b600080fd5b3480156100ee57600080fd5b5061010960048036038101906101049190612a1d565b610346565b6040516101169190612c1f565b60405180910390f35b34801561012b57600080fd5b5061014660048036038101906101419190612a1d565b6104be565b005b34801561015457600080fd5b5061016f600480360381019061016a9190612c6d565b610b40565b005b34801561017d57600080fd5b50610186610c87565b6040516101939190612dac565b60405180910390f35b3480156101a857600080fd5b506101c360048036038101906101be9190612e2e565b610e17565b005b3480156101d157600080fd5b506101ec60048036038101906101e79190612c6d565b6111fa565b005b3480156101fa57600080fd5b5061020361140e565b6040516102109190612e8a565b60405180910390f35b34801561022557600080fd5b5061022e6114a8565b60405161023b9190612e8a565b60405180910390f35b34801561025057600080fd5b5061026b60048036038101906102669190612f46565b6114b0565b604051610279929190612ff3565b60405180910390f35b34801561028e57600080fd5b506102a960048036038101906102a49190612a1d565b611598565b005b3480156102b757600080fd5b506102c0611bc5565b6040516102cd9190612e8a565b60405180910390f35b3480156102e257600080fd5b506102eb611bd4565b6040516102f891906130a9565b60405180910390f35b61031b600480360381019061031691906130cb565b611cad565b005b34801561032957600080fd5b50610344600480360381019061033f9190612c6d565b61237a565b005b61034e612615565b60028260405161035e919061317f565b9081526020016040518091039020604051806101200160405290816000820160009054906101000a900473ffffffffffffffffffffffffffffffffffffffff1673ffffffffffffffffffffffffffffffffffffffff1673ffffffffffffffffffffffffffffffffffffffff16815260200160018201548152602001600282015481526020016003820154815260200160048201548152602001600582015481526020016006820160009054906101000a900460ff1615151515815260200160078201548152602001600882018054610435906131c5565b80601f0160208091040260200160405190810160405280929190818152602001828054610461906131c5565b80156104ae5780601f10610483576101008083540402835291602001916104ae565b820191906000526020600020905b81548152906001019060200180831161049157829003601f168201915b5050505050815250509050919050565b600060018111156104d2576104d16131f6565b5b600960009054906101000a900460ff1660018111156104f4576104f36131f6565b5b14610534576040517f08c379a000000000000000000000000000000000000000000000000000000000815260040161052b90613282565b60405180910390fd5b600073ffffffffffffffffffffffffffffffffffffffff1660008260405161055c919061317f565b908152602001604051809103902060000160009054906101000a900473ffffffffffffffffffffffffffffffffffffffff1673ffffffffffffffffffffffffffffffffffffffff16036105e4576040517f08c379a00000000000000000000000000000000000000000000000000000000081526004016105db906132ee565b60405180910390fd5b60068190806001815401808255809150506001900390600052602060002001600090919091909150908161061891906134ba565b50600073ffffffffffffffffffffffffffffffffffffffff16600160003373ffffffffffffffffffffffffffffffffffffffff1673ffffffffffffffffffffffffffffffffffffffff16815260200190815260200160002060000160009054906101000a900473ffffffffffffffffffffffffffffffffffffffff1673ffffffffffffffffffffffffffffffffffffffff16146108205760008067ffffffffffffffff8111156106cb576106ca6128f2565b5b6040519080825280602002602001820160405280156106fe57816020015b60608152602001906001900390816106e95790505b50905060405180606001604052803373ffffffffffffffffffffffffffffffffffffffff1681526020016000815260200182815250600160003373ffffffffffffffffffffffffffffffffffffffff1673ffffffffffffffffffffffffffffffffffffffff16815260200190815260200160002060008201518160000160006101000a81548173ffffffffffffffffffffffffffffffffffffffff021916908373ffffffffffffffffffffffffffffffffffffffff1602179055506020820151816001015560408201518160020190805190602001906107df929190612679565b509050507faa66ab936168352c3ceec0936784009b98fff8330552a84dbec0ef7b8bcd687333604051610812919061359b565b60405180910390a150610a06565b6000600160003373ffffffffffffffffffffffffffffffffffffffff1673ffffffffffffffffffffffffffffffffffffffff168152602001908152602001600020905060006001826002018054905061087991906135e5565b67ffffffffffffffff811115610892576108916128f2565b5b6040519080825280602002602001820160405280156108c557816020015b60608152602001906001900390816108b05790505b50905082818251815181106108dd576108dc613619565b5b602002602001018190525080826002019080519060200190610900929190612679565b5081600160003373ffffffffffffffffffffffffffffffffffffffff1673ffffffffffffffffffffffffffffffffffffffff1681526020019081526020016000206000820160009054906101000a900473ffffffffffffffffffffffffffffffffffffffff168160000160006101000a81548173ffffffffffffffffffffffffffffffffffffffff021916908373ffffffffffffffffffffffffffffffffffffffff1602179055506001820154816001015560028201816002019080546109c89291906126d2565b509050507f13bc0fcf14f8f3ca0cb562786d0618c57a13e52bbdb4c041763d96acbfa07624336040516109fb919061359b565b60405180910390a150505b60008067ffffffffffffffff811115610a2257610a216128f2565b5b604051908082528060200260200182016040528015610a505781602001602082028036833780820191505090505b50905060405180604001604052803373ffffffffffffffffffffffffffffffffffffffff16815260200182815250600083604051610a8e919061317f565b908152602001604051809103902060008201518160000160006101000a81548173ffffffffffffffffffffffffffffffffffffffff021916908373ffffffffffffffffffffffffffffffffffffffff1602179055506020820151816001019080519060200190610aff92919061272f565b509050507ff866739ea10ca100bc6c13c9c14f5d62f2bea1919a42d92e4bc3e98fbeba621e3383604051610b34929190613681565b60405180910390a15050565b60006001811115610b5457610b536131f6565b5b600960009054906101000a900460ff166001811115610b7657610b756131f6565b5b14610bb6576040517f08c379a0000000000000000000000000000000000000000000000000000000008152600401610bad90613282565b60405180910390fd5b3373ffffffffffffffffffffffffffffffffffffffff16600460009054906101000a900473ffffffffffffffffffffffffffffffffffffffff1673ffffffffffffffffffffffffffffffffffffffff1614610c46576040517f08c379a0000000000000000000000000000000000000000000000000000000008152600401610c3d90613723565b60405180910390fd5b806008819055507ff347ee99503bf19c028bd6b18f3c676e82a9bb5b2bb5225aebe0fd62fd6a0d1981604051610c7c9190612e8a565b60405180910390a150565b610c8f6127b9565b600160003373ffffffffffffffffffffffffffffffffffffffff1673ffffffffffffffffffffffffffffffffffffffff1681526020019081526020016000206040518060600160405290816000820160009054906101000a900473ffffffffffffffffffffffffffffffffffffffff1673ffffffffffffffffffffffffffffffffffffffff1673ffffffffffffffffffffffffffffffffffffffff1681526020016001820154815260200160028201805480602002602001604051908101604052809291908181526020016000905b82821015610e0a578382906000526020600020018054610d7d906131c5565b80601f0160208091040260200160405190810160405280929190818152602001828054610da9906131c5565b8015610df65780601f10610dcb57610100808354040283529160200191610df6565b820191906000526020600020905b815481529060010190602001808311610dd957829003601f168201915b505050505081526020019060010190610d5e565b5050505081525050905090565b6000610e31604051806020016040528060008152506114b0565b50905080610e74576040517f08c379a0000000000000000000000000000000000000000000000000000000008152600401610e6b9061378f565b60405180910390fd5b80610ee05747600580549050600960009054906101000a900460ff166001811115610ea257610ea16131f6565b5b6040517f50ca6743000000000000000000000000000000000000000000000000000000008152600401610ed7939291906137af565b60405180910390fd5b6001600960006101000a81548160ff02191690836001811115610f0657610f056131f6565b5b021790555060006005805480602002602001604051908101604052809291908181526020016000905b82821015610fdb578382906000526020600020018054610f4e906131c5565b80601f0160208091040260200160405190810160405280929190818152602001828054610f7a906131c5565b8015610fc75780601f10610f9c57610100808354040283529160200191610fc7565b820191906000526020600020905b815481529060010190602001808311610faa57829003601f168201915b505050505081526020019060010190610f2f565b50505050905060006003549050600080835167ffffffffffffffff811115611006576110056128f2565b5b60405190808252806020026020018201604052801561103957816020015b60608152602001906001900390816110245790505b50905060005b84518110156110f857600085828151811061105d5761105c613619565b5b602002602001015190506000600282604051611079919061317f565b9081526020016040518091039020905042816007015411156110c757818486815181106110a9576110a8613619565b5b602002602001018190525084806110bf906137e6565b9550506110e9565b806004015481600201546110db919061382e565b866110e691906135e5565b95505b5050808060010191505061103f565b5080518210156111bf5760008267ffffffffffffffff81111561111e5761111d6128f2565b5b60405190808252806020026020018201604052801561115157816020015b606081526020019060019003908161113c5790505b50905060005b838110156111a55782818151811061117257611171613619565b5b602002602001015182828151811061118d5761118c613619565b5b60200260200101819052508080600101915050611157565b5080600590805190602001906111bc929190612679565b50505b826003819055506000600960006101000a81548160ff021916908360018111156111ec576111eb6131f6565b5b021790555050505050505050565b6000600181111561120e5761120d6131f6565b5b600960009054906101000a900460ff1660018111156112305761122f6131f6565b5b14611270576040517f08c379a000000000000000000000000000000000000000000000000000000000815260040161126790613282565b60405180910390fd5b3373ffffffffffffffffffffffffffffffffffffffff16600460009054906101000a900473ffffffffffffffffffffffffffffffffffffffff1673ffffffffffffffffffffffffffffffffffffffff1614611300576040517f08c379a00000000000000000000000000000000000000000000000000000000081526004016112f790613723565b60405180910390fd5b606460466003546113119190613862565b61131b91906138d3565b81111561135d576040517f08c379a000000000000000000000000000000000000000000000000000000000815260040161135490613950565b60405180910390fd5b3373ffffffffffffffffffffffffffffffffffffffff166108fc829081150290604051600060405180830381858888f193505050501580156113a3573d6000803e3d6000fd5b5080600360008282546113b6919061382e565b925050819055503373ffffffffffffffffffffffffffffffffffffffff167fd6f42bc80d79f51c5ffb3438f457e9355868cd0f02ccdd4d946494f962f4ac07826040516114039190612e8a565b60405180910390a250565b60003373ffffffffffffffffffffffffffffffffffffffff16600460009054906101000a900473ffffffffffffffffffffffffffffffffffffffff1673ffffffffffffffffffffffffffffffffffffffff16146114a0576040517f08c379a000000000000000000000000000000000000000000000000000000000815260040161149790613723565b60405180910390fd5b600354905090565b600042905090565b600060606000600960009054906101000a900460ff1660018111156114d8576114d76131f6565b5b600060018111156114ec576114eb6131f6565b5b14905060007f000000000000000000000000000000000000000000000000000000000000000060075442611520919061382e565b119050600080600580549050119050600080471190508280156115405750835b80156115495750805b80156115525750815b9550856040518060400160405280600381526020017f30783000000000000000000000000000000000000000000000000000000000008152509550955050505050915091565b600060018111156115ac576115ab6131f6565b5b600960009054906101000a900460ff1660018111156115ce576115cd6131f6565b5b1461160e576040517f08c379a000000000000000000000000000000000000000000000000000000000815260040161160590613282565b60405180910390fd5b803373ffffffffffffffffffffffffffffffffffffffff16600282604051611636919061317f565b908152602001604051809103902060000160009054906101000a900473ffffffffffffffffffffffffffffffffffffffff1673ffffffffffffffffffffffffffffffffffffffff16146116be576040517f08c379a00000000000000000000000000000000000000000000000000000000081526004016116b5906139e2565b60405180910390fd5b60006002836040516116d0919061317f565b908152602001604051809103902090506000816002015411611727576040517f08c379a000000000000000000000000000000000000000000000000000000000815260040161171e90613a4e565b60405180910390fd5b428160070154101561176e576040517f08c379a000000000000000000000000000000000000000000000000000000000815260040161176590613aba565b60405180910390fd5b80600101548160030154106117b8576040517f08c379a00000000000000000000000000000000000000000000000000000000081526004016117af90613b26565b60405180910390fd5b6000816001015482600201546117ce91906138d3565b90508160030160008154809291906117e5906137e6565b91905055508160010154826003015403611b085760006005805480602002602001604051908101604052809291908181526020016000905b828210156118c957838290600052602060002001805461183c906131c5565b80601f0160208091040260200160405190810160405280929190818152602001828054611868906131c5565b80156118b55780601f1061188a576101008083540402835291602001916118b5565b820191906000526020600020905b81548152906001019060200180831161189857829003601f168201915b50505050508152602001906001019061181d565b5050505090506000600182516118df919061382e565b67ffffffffffffffff8111156118f8576118f76128f2565b5b60405190808252806020026020018201604052801561192b57816020015b60608152602001906001900390816119165790505b5090506000805b83518110156119fe578760405160200161194c919061317f565b6040516020818303038152906040528051906020012084828151811061197557611974613619565b5b602002602001015160405160200161198d919061317f565b60405160208183030381529060405280519060200120146119f1578381815181106119bb576119ba613619565b5b60200260200101518383815181106119d6576119d5613619565b5b60200260200101819052506001826119ee91906135e5565b91505b8080600101915050611932565b508160059080519060200190611a15929190612679565b50600085600401548660020154611a2c919061382e565b905080866004016000828254611a4291906135e5565b9250508190555060018660060160006101000a81548160ff0219169083151502179055503373ffffffffffffffffffffffffffffffffffffffff166108fc829081150290604051600060405180830381858888f19350505050158015611aac573d6000803e3d6000fd5b503373ffffffffffffffffffffffffffffffffffffffff167fd867cfadc420a62f8ddbfaf0ee08af17bef908fdeb647de660511cebe642486c8760020154604051611af79190612e8a565b60405180910390a250505050611bbf565b80826004016000828254611b1c91906135e5565b925050819055503373ffffffffffffffffffffffffffffffffffffffff166108fc829081150290604051600060405180830381858888f19350505050158015611b69573d6000803e3d6000fd5b503373ffffffffffffffffffffffffffffffffffffffff167ff43bfc498688ec8f5ca2efe35ba87cb7b4f33c139cb2dc8e3f795527e3f08ccc836003015483604051611bb6929190613b46565b60405180910390a25b50505050565b60008060085490508091505090565b60606006805480602002602001604051908101604052809291908181526020016000905b82821015611ca4578382906000526020600020018054611c17906131c5565b80601f0160208091040260200160405190810160405280929190818152602001828054611c43906131c5565b8015611c905780601f10611c6557610100808354040283529160200191611c90565b820191906000526020600020905b815481529060010190602001808311611c7357829003601f168201915b505050505081526020019060010190611bf8565b50505050905090565b60006001811115611cc157611cc06131f6565b5b600960009054906101000a900460ff166001811115611ce357611ce26131f6565b5b14611d23576040517f08c379a0000000000000000000000000000000000000000000000000000000008152600401611d1a90613282565b60405180910390fd5b600073ffffffffffffffffffffffffffffffffffffffff16600082604051611d4b919061317f565b908152602001604051809103902060000160009054906101000a900473ffffffffffffffffffffffffffffffffffffffff1673ffffffffffffffffffffffffffffffffffffffff1603611dd3576040517f08c379a0000000000000000000000000000000000000000000000000000000008152600401611dca90613bbb565b60405180910390fd5b600854341015611e18576040517f08c379a0000000000000000000000000000000000000000000000000000000008152600401611e0f90613c4d565b60405180910390fd5b6000600283604051611e2a919061317f565b90815260200160405180910390206002015414611e7c576040517f08c379a0000000000000000000000000000000000000000000000000000000008152600401611e7390613cb9565b60405180910390fd5b60008082604051611e8d919061317f565b908152602001604051809103902090506000600160008360000160009054906101000a900473ffffffffffffffffffffffffffffffffffffffff1673ffffffffffffffffffffffffffffffffffffffff1673ffffffffffffffffffffffffffffffffffffffff1681526020019081526020016000209050600060018360010180549050611f1a91906135e5565b67ffffffffffffffff811115611f3357611f326128f2565b5b604051908082528060200260200182016040528015611f615781602001602082028036833780820191505090505b509050600585908060018154018082558091505060019003906000526020600020016000909190919091509081611f9891906134ba565b5060006064603234611faa9190613862565b611fb491906138d3565b905060008134611fc4919061382e565b9050600062093a8042611fd791906135e5565b90503384855181518110611fee57611fed613619565b5b602002602001019073ffffffffffffffffffffffffffffffffffffffff16908173ffffffffffffffffffffffffffffffffffffffff16815250508285600101600082825461203c91906135e5565b925050819055508386600101908051906020019061205b92919061272f565b5084600160008860000160009054906101000a900473ffffffffffffffffffffffffffffffffffffffff1673ffffffffffffffffffffffffffffffffffffffff1673ffffffffffffffffffffffffffffffffffffffff1681526020019081526020016000206000820160009054906101000a900473ffffffffffffffffffffffffffffffffffffffff168160000160006101000a81548173ffffffffffffffffffffffffffffffffffffffff021916908373ffffffffffffffffffffffffffffffffffffffff1602179055506001820154816001015560028201816002019080546121479291906126d2565b509050508560008960405161215c919061317f565b90815260200160405180910390206000820160009054906101000a900473ffffffffffffffffffffffffffffffffffffffff168160000160006101000a81548173ffffffffffffffffffffffffffffffffffffffff021916908373ffffffffffffffffffffffffffffffffffffffff16021790555060018201816001019080546121e79291906127f0565b509050506040518061012001604052803373ffffffffffffffffffffffffffffffffffffffff16815260200160058152602001838152602001600081526020016000815260200142815260200160001515815260200182815260200188815250600289604051612257919061317f565b908152602001604051809103902060008201518160000160006101000a81548173ffffffffffffffffffffffffffffffffffffffff021916908373ffffffffffffffffffffffffffffffffffffffff1602179055506020820151816001015560408201518160020155606082015181600301556080820151816004015560a0820151816005015560c08201518160060160006101000a81548160ff02191690831515021790555060e0820151816007015561010082015181600801908161231e91906134ba565b509050503373ffffffffffffffffffffffffffffffffffffffff167f1423e2a671bcc71c56f3c3cb78e3c96473d3ca5eb061acd0b93d1d0a6617f658836040516123689190612e8a565b60405180910390a25050505050505050565b6000600160003373ffffffffffffffffffffffffffffffffffffffff1673ffffffffffffffffffffffffffffffffffffffff16815260200190815260200160002090508060010154821115612404576040517f08c379a00000000000000000000000000000000000000000000000000000000081526004016123fb90613d4b565b60405180910390fd5b8060000160009054906101000a900473ffffffffffffffffffffffffffffffffffffffff1673ffffffffffffffffffffffffffffffffffffffff163373ffffffffffffffffffffffffffffffffffffffff1614612496576040517f08c379a000000000000000000000000000000000000000000000000000000000815260040161248d90613db7565b60405180910390fd5b3373ffffffffffffffffffffffffffffffffffffffff166108fc839081150290604051600060405180830381858888f193505050501580156124dc573d6000803e3d6000fd5b50818160010160008282546124f1919061382e565b9250508190555080600160003373ffffffffffffffffffffffffffffffffffffffff1673ffffffffffffffffffffffffffffffffffffffff1681526020019081526020016000206000820160009054906101000a900473ffffffffffffffffffffffffffffffffffffffff168160000160006101000a81548173ffffffffffffffffffffffffffffffffffffffff021916908373ffffffffffffffffffffffffffffffffffffffff1602179055506001820154816001015560028201816002019080546125bf9291906126d2565b509050503373ffffffffffffffffffffffffffffffffffffffff167f3418edea3cedd14ff3ff0e4b7a89699efa06ed87c31c8e3b75b2c6a020c68f2d836040516126099190612e8a565b60405180910390a25050565b604051806101200160405280600073ffffffffffffffffffffffffffffffffffffffff168152602001600081526020016000815260200160008152602001600081526020016000815260200160001515815260200160008152602001606081525090565b8280548282559060005260206000209081019282156126c1579160200282015b828111156126c05782518290816126b091906134ba565b5091602001919060010190612699565b5b5090506126ce9190612842565b5090565b82805482825590600052602060002090810192821561271e5760005260206000209182015b8281111561271d578282908161270d9190613ded565b50916001019190600101906126f7565b5b50905061272b9190612842565b5090565b8280548282559060005260206000209081019282156127a8579160200282015b828111156127a75782518260006101000a81548173ffffffffffffffffffffffffffffffffffffffff021916908373ffffffffffffffffffffffffffffffffffffffff1602179055509160200191906001019061274f565b5b5090506127b59190612866565b5090565b6040518060600160405280600073ffffffffffffffffffffffffffffffffffffffff16815260200160008152602001606081525090565b8280548282559060005260206000209081019282156128315760005260206000209182015b82811115612830578254825591600101919060010190612815565b5b50905061283e9190612866565b5090565b5b8082111561286257600081816128599190612883565b50600101612843565b5090565b5b8082111561287f576000816000905550600101612867565b5090565b50805461288f906131c5565b6000825580601f106128a157506128c0565b601f0160209004906000526020600020908101906128bf9190612866565b5b50565b6000604051905090565b600080fd5b600080fd5b600080fd5b600080fd5b6000601f19601f8301169050919050565b7f4e487b7100000000000000000000000000000000000000000000000000000000600052604160045260246000fd5b61292a826128e1565b810181811067ffffffffffffffff82111715612949576129486128f2565b5b80604052505050565b600061295c6128c3565b90506129688282612921565b919050565b600067ffffffffffffffff821115612988576129876128f2565b5b612991826128e1565b9050602081019050919050565b82818337600083830152505050565b60006129c06129bb8461296d565b612952565b9050828152602081018484840111156129dc576129db6128dc565b5b6129e784828561299e565b509392505050565b600082601f830112612a0457612a036128d7565b5b8135612a148482602086016129ad565b91505092915050565b600060208284031215612a3357612a326128cd565b5b600082013567ffffffffffffffff811115612a5157612a506128d2565b5b612a5d848285016129ef565b91505092915050565b600073ffffffffffffffffffffffffffffffffffffffff82169050919050565b6000612a9182612a66565b9050919050565b612aa181612a86565b82525050565b6000819050919050565b612aba81612aa7565b82525050565b60008115159050919050565b612ad581612ac0565b82525050565b600081519050919050565b600082825260208201905092915050565b60005b83811015612b15578082015181840152602081019050612afa565b60008484015250505050565b6000612b2c82612adb565b612b368185612ae6565b9350612b46818560208601612af7565b612b4f816128e1565b840191505092915050565b600061012083016000830151612b736000860182612a98565b506020830151612b866020860182612ab1565b506040830151612b996040860182612ab1565b506060830151612bac6060860182612ab1565b506080830151612bbf6080860182612ab1565b5060a0830151612bd260a0860182612ab1565b5060c0830151612be560c0860182612acc565b5060e0830151612bf860e0860182612ab1565b50610100830151848203610100860152612c128282612b21565b9150508091505092915050565b60006020820190508181036000830152612c398184612b5a565b905092915050565b612c4a81612aa7565b8114612c5557600080fd5b50565b600081359050612c6781612c41565b92915050565b600060208284031215612c8357612c826128cd565b5b6000612c9184828501612c58565b91505092915050565b600081519050919050565b600082825260208201905092915050565b6000819050602082019050919050565b6000612cd28383612b21565b905092915050565b6000602082019050919050565b6000612cf282612c9a565b612cfc8185612ca5565b935083602082028501612d0e85612cb6565b8060005b85811015612d4a5784840389528151612d2b8582612cc6565b9450612d3683612cda565b925060208a01995050600181019050612d12565b50829750879550505050505092915050565b6000606083016000830151612d746000860182612a98565b506020830151612d876020860182612ab1565b5060408301518482036040860152612d9f8282612ce7565b9150508091505092915050565b60006020820190508181036000830152612dc68184612d5c565b905092915050565b600080fd5b600080fd5b60008083601f840112612dee57612ded6128d7565b5b8235905067ffffffffffffffff811115612e0b57612e0a612dce565b5b602083019150836001820283011115612e2757612e26612dd3565b5b9250929050565b60008060208385031215612e4557612e446128cd565b5b600083013567ffffffffffffffff811115612e6357612e626128d2565b5b612e6f85828601612dd8565b92509250509250929050565b612e8481612aa7565b82525050565b6000602082019050612e9f6000830184612e7b565b92915050565b600067ffffffffffffffff821115612ec057612ebf6128f2565b5b612ec9826128e1565b9050602081019050919050565b6000612ee9612ee484612ea5565b612952565b905082815260208101848484011115612f0557612f046128dc565b5b612f1084828561299e565b509392505050565b600082601f830112612f2d57612f2c6128d7565b5b8135612f3d848260208601612ed6565b91505092915050565b600060208284031215612f5c57612f5b6128cd565b5b600082013567ffffffffffffffff811115612f7a57612f796128d2565b5b612f8684828501612f18565b91505092915050565b612f9881612ac0565b82525050565b600081519050919050565b600082825260208201905092915050565b6000612fc582612f9e565b612fcf8185612fa9565b9350612fdf818560208601612af7565b612fe8816128e1565b840191505092915050565b60006040820190506130086000830185612f8f565b818103602083015261301a8184612fba565b90509392505050565b600082825260208201905092915050565b600061303f82612c9a565b6130498185613023565b93508360208202850161305b85612cb6565b8060005b8581101561309757848403895281516130788582612cc6565b945061308383612cda565b925060208a0199505060018101905061305f565b50829750879550505050505092915050565b600060208201905081810360008301526130c38184613034565b905092915050565b600080604083850312156130e2576130e16128cd565b5b600083013567ffffffffffffffff811115613100576130ff6128d2565b5b61310c858286016129ef565b925050602083013567ffffffffffffffff81111561312d5761312c6128d2565b5b613139858286016129ef565b9150509250929050565b600081905092915050565b600061315982612adb565b6131638185613143565b9350613173818560208601612af7565b80840191505092915050565b600061318b828461314e565b915081905092915050565b7f4e487b7100000000000000000000000000000000000000000000000000000000600052602260045260246000fd5b600060028204905060018216806131dd57607f821691505b6020821081036131f0576131ef613196565b5b50919050565b7f4e487b7100000000000000000000000000000000000000000000000000000000600052602160045260246000fd5b600082825260208201905092915050565b7f436f6e747261637420697320696e2055706b6565700000000000000000000000600082015250565b600061326c601583613225565b915061327782613236565b602082019050919050565b6000602082019050818103600083015261329b8161325f565b9050919050565b7f50726f6475637420416c72656164792045786973747300000000000000000000600082015250565b60006132d8601683613225565b91506132e3826132a2565b602082019050919050565b60006020820190508181036000830152613307816132cb565b9050919050565b60008190508160005260206000209050919050565b60006020601f8301049050919050565b600082821b905092915050565b6000600883026133707fffffffffffffffffffffffffffffffffffffffffffffffffffffffffffffffff82613333565b61337a8683613333565b95508019841693508086168417925050509392505050565b6000819050919050565b60006133b76133b26133ad84612aa7565b613392565b612aa7565b9050919050565b6000819050919050565b6133d18361339c565b6133e56133dd826133be565b848454613340565b825550505050565b600090565b6133fa6133ed565b6134058184846133c8565b505050565b5b818110156134295761341e6000826133f2565b60018101905061340b565b5050565b601f82111561346e5761343f8161330e565b61344884613323565b81016020851015613457578190505b61346b61346385613323565b83018261340a565b50505b505050565b600082821c905092915050565b600061349160001984600802613473565b1980831691505092915050565b60006134aa8383613480565b9150826002028217905092915050565b6134c382612adb565b67ffffffffffffffff8111156134dc576134db6128f2565b5b6134e682546131c5565b6134f182828561342d565b600060209050601f8311600181146135245760008415613512578287015190505b61351c858261349e565b865550613584565b601f1984166135328661330e565b60005b8281101561355a57848901518255600182019150602085019450602081019050613535565b868310156135775784890151613573601f891682613480565b8355505b6001600288020188555050505b505050505050565b61359581612a86565b82525050565b60006020820190506135b0600083018461358c565b92915050565b7f4e487b7100000000000000000000000000000000000000000000000000000000600052601160045260246000fd5b60006135f082612aa7565b91506135fb83612aa7565b9250828201905080821115613613576136126135b6565b5b92915050565b7f4e487b7100000000000000000000000000000000000000000000000000000000600052603260045260246000fd5b600061365382612adb565b61365d8185613225565b935061366d818560208601612af7565b613676816128e1565b840191505092915050565b6000604082019050613696600083018561358c565b81810360208301526136a88184613648565b90509392505050565b7f4f6e6c792074686520706c6174666f726d2077616c6c65742063616e2070657260008201527f666f726d207468697320616374696f6e00000000000000000000000000000000602082015250565b600061370d603083613225565b9150613718826136b1565b604082019050919050565b6000602082019050818103600083015261373c81613700565b9050919050565b7f55706b656570206e6f74206e6565646564000000000000000000000000000000600082015250565b6000613779601183613225565b915061378482613743565b602082019050919050565b600060208201905081810360008301526137a88161376c565b9050919050565b60006060820190506137c46000830186612e7b565b6137d16020830185612e7b565b6137de6040830184612e7b565b949350505050565b60006137f182612aa7565b91507fffffffffffffffffffffffffffffffffffffffffffffffffffffffffffffffff8203613823576138226135b6565b5b600182019050919050565b600061383982612aa7565b915061384483612aa7565b925082820390508181111561385c5761385b6135b6565b5b92915050565b600061386d82612aa7565b915061387883612aa7565b925082820261388681612aa7565b9150828204841483151761389d5761389c6135b6565b5b5092915050565b7f4e487b7100000000000000000000000000000000000000000000000000000000600052601260045260246000fd5b60006138de82612aa7565b91506138e983612aa7565b9250826138f9576138f86138a4565b5b828204905092915050565b7f416d6f756e74206578636565647320636f6c6c65637461626c652066756e6473600082015250565b600061393a602083613225565b915061394582613904565b602082019050919050565b600060208201905081810360008301526139698161392d565b9050919050565b7f4f6e6c79207468652063726561746f722077616c6c65742063616e207065726660008201527f6f726d207468697320616374696f6e0000000000000000000000000000000000602082015250565b60006139cc602f83613225565b91506139d782613970565b604082019050919050565b600060208201905081810360008301526139fb816139bf565b9050919050565b7f4e6f2066756e6473206c6f636b65640000000000000000000000000000000000600082015250565b6000613a38600f83613225565b9150613a4382613a02565b602082019050919050565b60006020820190508181036000830152613a6781613a2b565b9050919050565b7f4d696c6573746f6e652045787069726564000000000000000000000000000000600082015250565b6000613aa4601183613225565b9150613aaf82613a6e565b602082019050919050565b60006020820190508181036000830152613ad381613a97565b9050919050565b7f416c6c206d696c6573746f6e657320616c726561647920636f6d706c65746564600082015250565b6000613b10602083613225565b9150613b1b82613ada565b602082019050919050565b60006020820190508181036000830152613b3f81613b03565b9050919050565b6000604082019050613b5b6000830185612e7b565b613b686020830184612e7b565b9392505050565b7f4e6f2061727469636c6573206578697374000000000000000000000000000000600082015250565b6000613ba5601183613225565b9150613bb082613b6f565b602082019050919050565b60006020820190508181036000830152613bd481613b98565b9050919050565b7f53656e7420616d6f756e74206d75737420626520686967686572207468616e2060008201527f656e747279206665650000000000000000000000000000000000000000000000602082015250565b6000613c37602983613225565b9150613c4282613bdb565b604082019050919050565b60006020820190508181036000830152613c6681613c2a565b9050919050565b7f5573657220616c7265616479206c6f636b65642066756e647300000000000000600082015250565b6000613ca3601983613225565b9150613cae82613c6d565b602082019050919050565b60006020820190508181036000830152613cd281613c96565b9050919050565b7f416d6f756e74206578636565647320636f6c6c6563746561626c65732066756e60008201527f6473000000000000000000000000000000000000000000000000000000000000602082015250565b6000613d35602283613225565b9150613d4082613cd9565b604082019050919050565b60006020820190508181036000830152613d6481613d28565b9050919050565b7f416d6f756e74206578636565647320636f6c6c65637465642066756e64730000600082015250565b6000613da1601e83613225565b9150613dac82613d6b565b602082019050919050565b60006020820190508181036000830152613dd081613d94565b9050919050565b600081549050613de6816131c5565b9050919050565b818103613dfb575050613ed3565b613e0482613dd7565b67ffffffffffffffff811115613e1d57613e1c6128f2565b5b613e2782546131c5565b613e3282828561342d565b6000601f831160018114613e615760008415613e4f578287015490505b613e59858261349e565b865550613ecc565b601f198416613e6f8761330e565b9650613e7a8661330e565b60005b82811015613ea257848901548255600182019150600185019450602081019050613e7d565b86831015613ebf5784890154613ebb601f891682613480565b8355505b6001600288020188555050505b5050505050505b56fea2646970667358221220e459d087b204b80a0ac2ae9f2dcdd2d2a0c578c597d365d5e3511670495385ca64736f6c634300081c0033",
  "devdoc": {
    "kind": "dev",
    "methods": {},
    "version": 1
  },
  "userdoc": {
    "kind": "user",
    "methods": {},
    "version": 1
  },
  "storageLayout": {
    "storage": [
      {
        "astId": 72,
        "contract": "contracts/CreatorEconomy.sol:CreatorEconomy",
        "label": "identifiers",
        "offset": 0,
        "slot": "0",
        "type": "t_mapping(t_string_memory_ptr,t_struct(Product_identifiers)40_storage)"
      },
      {
        "astId": 77,
        "contract": "contracts/CreatorEconomy.sol:CreatorEconomy",
        "label": "balances",
        "offset": 0,
        "slot": "1",
        "type": "t_mapping(t_address,t_struct(Creator_balance)48_storage)"
      },
      {
        "astId": 82,
        "contract": "contracts/CreatorEconomy.sol:CreatorEconomy",
        "label": "products",
        "offset": 0,
        "slot": "2",
        "type": "t_mapping(t_string_memory_ptr,t_struct(Milestone)67_storage)"
      },
      {
        "astId": 93,
        "contract": "contracts/CreatorEconomy.sol:CreatorEconomy",
        "label": "owner_balance",
        "offset": 0,
        "slot": "3",
        "type": "t_uint256"
      },
      {
        "astId": 95,
        "contract": "contracts/CreatorEconomy.sol:CreatorEconomy",
        "label": "platformWallet",
        "offset": 0,
        "slot": "4",
        "type": "t_address"
      },
      {
        "astId": 98,
        "contract": "contracts/CreatorEconomy.sol:CreatorEconomy",
        "label": "activeMilestones",
        "offset": 0,
        "slot": "5",
        "type": "t_array(t_string_storage)dyn_storage"
      },
      {
        "astId": 101,
        "contract": "contracts/CreatorEconomy.sol:CreatorEconomy",
        "label": "activeIdentifiers",
        "offset": 0,
        "slot": "6",
        "type": "t_array(t_string_storage)dyn_storage"
      },
      {
        "astId": 105,
        "contract": "contracts/CreatorEconomy.sol:CreatorEconomy",
        "label": "s_lastTimeStamp",
        "offset": 0,
        "slot": "7",
        "type": "t_uint256"
      },
      {
        "astId": 107,
        "contract": "contracts/CreatorEconomy.sol:CreatorEconomy",
        "label": "s_milestone_price",
        "offset": 0,
        "slot": "8",
        "type": "t_uint256"
      },
      {
        "astId": 160,
        "contract": "contracts/CreatorEconomy.sol:CreatorEconomy",
        "label": "s_milestoneState",
        "offset": 0,
        "slot": "9",
        "type": "t_enum(MileStoneState)34"
      }
    ],
    "types": {
      "t_address": {
        "encoding": "inplace",
        "label": "address",
        "numberOfBytes": "20"
      },
      "t_array(t_address)dyn_storage": {
        "base": "t_address",
        "encoding": "dynamic_array",
        "label": "address[]",
        "numberOfBytes": "32"
      },
      "t_array(t_string_storage)dyn_storage": {
        "base": "t_string_storage",
        "encoding": "dynamic_array",
        "label": "string[]",
        "numberOfBytes": "32"
      },
      "t_bool": {
        "encoding": "inplace",
        "label": "bool",
        "numberOfBytes": "1"
      },
      "t_enum(MileStoneState)34": {
        "encoding": "inplace",
        "label": "enum CreatorEconomy.MileStoneState",
        "numberOfBytes": "1"
      },
      "t_mapping(t_address,t_struct(Creator_balance)48_storage)": {
        "encoding": "mapping",
        "key": "t_address",
        "label": "mapping(address => struct CreatorEconomy.Creator_balance)",
        "numberOfBytes": "32",
        "value": "t_struct(Creator_balance)48_storage"
      },
      "t_mapping(t_string_memory_ptr,t_struct(Milestone)67_storage)": {
        "encoding": "mapping",
        "key": "t_string_memory_ptr",
        "label": "mapping(string => struct CreatorEconomy.Milestone)",
        "numberOfBytes": "32",
        "value": "t_struct(Milestone)67_storage"
      },
      "t_mapping(t_string_memory_ptr,t_struct(Product_identifiers)40_storage)": {
        "encoding": "mapping",
        "key": "t_string_memory_ptr",
        "label": "mapping(string => struct CreatorEconomy.Product_identifiers)",
        "numberOfBytes": "32",
        "value": "t_struct(Product_identifiers)40_storage"
      },
      "t_string_memory_ptr": {
        "encoding": "bytes",
        "label": "string",
        "numberOfBytes": "32"
      },
      "t_string_storage": {
        "encoding": "bytes",
        "label": "string",
        "numberOfBytes": "32"
      },
      "t_struct(Creator_balance)48_storage": {
        "encoding": "inplace",
        "label": "struct CreatorEconomy.Creator_balance",
        "members": [
          {
            "astId": 42,
            "contract": "contracts/CreatorEconomy.sol:CreatorEconomy",
            "label": "creator",
            "offset": 0,
            "slot": "0",
            "type": "t_address"
          },
          {
            "astId": 44,
            "contract": "contracts/CreatorEconomy.sol:CreatorEconomy",
            "label": "balance",
            "offset": 0,
            "slot": "1",
            "type": "t_uint256"
          },
          {
            "astId": 47,
            "contract": "contracts/CreatorEconomy.sol:CreatorEconomy",
            "label": "identifier_list",
            "offset": 0,
            "slot": "2",
            "type": "t_array(t_string_storage)dyn_storage"
          }
        ],
        "numberOfBytes": "96"
      },
      "t_struct(Milestone)67_storage": {
        "encoding": "inplace",
        "label": "struct CreatorEconomy.Milestone",
        "members": [
          {
            "astId": 50,
            "contract": "contracts/CreatorEconomy.sol:CreatorEconomy",
            "label": "creator",
            "offset": 0,
            "slot": "0",
            "type": "t_address"
          },
          {
            "astId": 52,
            "contract": "contracts/CreatorEconomy.sol:CreatorEconomy",
            "label": "totalMilestones",
            "offset": 0,
            "slot": "1",
            "type": "t_uint256"
          },
          {
            "astId": 54,
            "contract": "contracts/CreatorEconomy.sol:CreatorEconomy",
            "label": "totalAmount",
            "offset": 0,
            "slot": "2",
            "type": "t_uint256"
          },
          {
            "astId": 56,
            "contract": "contracts/CreatorEconomy.sol:CreatorEconomy",
            "label": "milestoneCompleted",
            "offset": 0,
            "slot": "3",
            "type": "t_uint256"
          },
          {
            "astId": 58,
            "contract": "contracts/CreatorEconomy.sol:CreatorEconomy",
            "label": "amountWithdrawn",
            "offset": 0,
            "slot": "4",
            "type": "t_uint256"
          },
          {
            "astId": 60,
            "contract": "contracts/CreatorEconomy.sol:CreatorEconomy",
            "label": "createdAt",
            "offset": 0,
            "slot": "5",
            "type": "t_uint256"
          },
          {
            "astId": 62,
            "contract": "contracts/CreatorEconomy.sol:CreatorEconomy",
            "label": "isCompleted",
            "offset": 0,
            "slot": "6",
            "type": "t_bool"
          },
          {
            "astId": 64,
            "contract": "contracts/CreatorEconomy.sol:CreatorEconomy",
            "label": "endsAt",
            "offset": 0,
            "slot": "7",
            "type": "t_uint256"
          },
          {
            "astId": 66,
            "contract": "contracts/CreatorEconomy.sol:CreatorEconomy",
            "label": "product",
            "offset": 0,
            "slot": "8",
            "type": "t_string_storage"
          }
        ],
        "numberOfBytes": "288"
      },
      "t_struct(Product_identifiers)40_storage": {
        "encoding": "inplace",
        "label": "struct CreatorEconomy.Product_identifiers",
        "members": [
          {
            "astId": 36,
            "contract": "contracts/CreatorEconomy.sol:CreatorEconomy",
            "label": "creator",
            "offset": 0,
            "slot": "0",
            "type": "t_address"
          },
          {
            "astId": 39,
            "contract": "contracts/CreatorEconomy.sol:CreatorEconomy",
            "label": "fans",
            "offset": 0,
            "slot": "1",
            "type": "t_array(t_address)dyn_storage"
          }
        ],
        "numberOfBytes": "64"
      },
      "t_uint256": {
        "encoding": "inplace",
        "label": "uint256",
        "numberOfBytes": "32"
      }
    }
  }
}