{
  "address": "0x5FbDB2315678afecb367f032d93F642f64180aa3",
  "abi": [
    {
      "inputs": [
        {
          "internalType": "address",
          "name": "_platformWallet",
          "type": "address"
        },
        {
          "internalType": "uint256",
          "name": "interval",
          "type": "uint256"
        },
        {
          "internalType": "uint256",
          "name": "price",
          "type": "uint256"
        }
      ],
      "stateMutability": "nonpayable",
      "type": "constructor"
    },
    {
      "inputs": [
        {
          "internalType": "uint256",
          "name": "currentBalance",
          "type": "uint256"
        },
        {
          "internalType": "uint256",
          "name": "numPlayers",
          "type": "uint256"
        },
        {
          "internalType": "uint256",
          "name": "raffleState",
          "type": "uint256"
        }
      ],
      "name": "Milestones__UpkeepNotNeeded",
      "type": "error"
    },
    {
      "anonymous": false,
      "inputs": [
        {
          "indexed": true,
          "internalType": "address",
          "name": "user",
          "type": "address"
        },
        {
          "indexed": false,
          "internalType": "uint256",
          "name": "totalAmount",
          "type": "uint256"
        }
      ],
      "name": "AllFundsWithdrawn",
      "type": "event"
    },
    {
      "anonymous": false,
      "inputs": [
        {
          "indexed": false,
          "internalType": "address",
          "name": "creator",
          "type": "address"
        }
      ],
      "name": "BalanceCreated",
      "type": "event"
    },
    {
      "anonymous": false,
      "inputs": [
        {
          "indexed": false,
          "internalType": "address",
          "name": "creator",
          "type": "address"
        }
      ],
      "name": "BalanceUpdated",
      "type": "event"
    },
    {
      "anonymous": false,
      "inputs": [
        {
          "indexed": true,
          "internalType": "address",
          "name": "creator",
          "type": "address"
        },
        {
          "indexed": false,
          "internalType": "uint256",
          "name": "amount",
          "type": "uint256"
        }
      ],
      "name": "CreatorsWithdrawl",
      "type": "event"
    },
    {
      "anonymous": false,
      "inputs": [
        {
          "indexed": true,
          "internalType": "address",
          "name": "user",
          "type": "address"
        },
        {
          "indexed": false,
          "internalType": "uint256",
          "name": "amount",
          "type": "uint256"
        }
      ],
      "name": "FundsLocked",
      "type": "event"
    },
    {
      "anonymous": false,
      "inputs": [
        {
          "indexed": true,
          "internalType": "address",
          "name": "user",
          "type": "address"
        },
        {
          "indexed": false,
          "internalType": "uint256",
          "name": "milestone",
          "type": "uint256"
        },
        {
          "indexed": false,
          "internalType": "uint256",
          "name": "amountReleased",
          "type": "uint256"
        }
      ],
      "name": "MilestoneCompleted",
      "type": "event"
    },
    {
      "anonymous": false,
      "inputs": [
        {
          "indexed": true,
          "internalType": "address",
          "name": "creator",
          "type": "address"
        },
        {
          "indexed": false,
          "internalType": "uint256",
          "name": "amount",
          "type": "uint256"
        }
      ],
      "name": "OwnersWithdrawl",
      "type": "event"
    },
    {
      "anonymous": false,
      "inputs": [
        {
          "indexed": false,
          "internalType": "uint256",
          "name": "amount",
          "type": "uint256"
        }
      ],
      "name": "PriceChange",
      "type": "event"
    },
    {
      "anonymous": false,
      "inputs": [
        {
          "indexed": false,
          "internalType": "address",
          "name": "creator",
          "type": "address"
        },
        {
          "indexed": false,
          "internalType": "string",
          "name": "product",
          "type": "string"
        }
      ],
      "name": "ProductCreated",
      "type": "event"
    },
    {
      "inputs": [
        {
          "internalType": "uint256",
          "name": "amount",
          "type": "uint256"
        }
      ],
      "name": "changeMileStonePrice",
      "outputs": [],
      "stateMutability": "nonpayable",
      "type": "function"
    },
    {
      "inputs": [
        {
          "internalType": "bytes",
          "name": "",
          "type": "bytes"
        }
      ],
      "name": "checkUpkeep",
      "outputs": [
        {
          "internalType": "bool",
          "name": "upkeepNeeded",
          "type": "bool"
        },
        {
          "internalType": "bytes",
          "name": "",
          "type": "bytes"
        }
      ],
      "stateMutability": "view",
      "type": "function"
    },
    {
      "inputs": [
        {
          "internalType": "string",
          "name": "productId",
          "type": "string"
        }
      ],
      "name": "completeMilestone",
      "outputs": [],
      "stateMutability": "nonpayable",
      "type": "function"
    },
    {
      "inputs": [
        {
          "internalType": "string",
          "name": "productId",
          "type": "string"
        }
      ],
      "name": "createProduct",
      "outputs": [],
      "stateMutability": "nonpayable",
      "type": "function"
    },
    {
      "inputs": [
        {
          "internalType": "uint256",
          "name": "amount",
          "type": "uint256"
        }
      ],
      "name": "creatorsWithdrawl",
      "outputs": [],
      "stateMutability": "nonpayable",
      "type": "function"
    },
    {
      "inputs": [],
      "name": "getBalance",
      "outputs": [
        {
          "components": [
            {
              "internalType": "address",
              "name": "creator",
              "type": "address"
            },
            {
              "internalType": "uint256",
              "name": "balance",
              "type": "uint256"
            },
            {
              "internalType": "string[]",
              "name": "identifier_list",
              "type": "string[]"
            }
          ],
          "internalType": "struct CreatorEconomy.Creator_balance",
          "name": "",
          "type": "tuple"
        }
      ],
      "stateMutability": "view",
      "type": "function"
    },
    {
      "inputs": [],
      "name": "getCurrentTimestamp",
      "outputs": [
        {
          "internalType": "uint256",
          "name": "",
          "type": "uint256"
        }
      ],
      "stateMutability": "view",
      "type": "function"
    },
    {
      "inputs": [
        {
          "internalType": "string",
          "name": "productId",
          "type": "string"
        }
      ],
      "name": "getIdentifier",
      "outputs": [
        {
          "components": [
            {
              "internalType": "address",
              "name": "creator",
              "type": "address"
            },
            {
              "internalType": "address[]",
              "name": "fans",
              "type": "address[]"
            }
          ],
          "internalType": "struct CreatorEconomy.Product_identifiers",
          "name": "",
          "type": "tuple"
        }
      ],
      "stateMutability": "view",
      "type": "function"
    },
    {
      "inputs": [],
      "name": "getIdentifiers",
      "outputs": [
        {
          "internalType": "string[]",
          "name": "",
          "type": "string[]"
        }
      ],
      "stateMutability": "view",
      "type": "function"
    },
    {
      "inputs": [],
      "name": "getOwnerBalance",
      "outputs": [
        {
          "internalType": "uint256",
          "name": "",
          "type": "uint256"
        }
      ],
      "stateMutability": "view",
      "type": "function"
    },
    {
      "inputs": [],
      "name": "getPrice",
      "outputs": [
        {
          "internalType": "uint256",
          "name": "",
          "type": "uint256"
        }
      ],
      "stateMutability": "view",
      "type": "function"
    },
    {
      "inputs": [
        {
          "internalType": "string",
          "name": "productId",
          "type": "string"
        }
      ],
      "name": "getUserMilestoneDetails",
      "outputs": [
        {
          "components": [
            {
              "internalType": "address",
              "name": "creator",
              "type": "address"
            },
            {
              "internalType": "uint256",
              "name": "totalMilestones",
              "type": "uint256"
            },
            {
              "internalType": "uint256",
              "name": "totalAmount",
              "type": "uint256"
            },
            {
              "internalType": "uint256",
              "name": "milestoneCompleted",
              "type": "uint256"
            },
            {
              "internalType": "uint256",
              "name": "amountWithdrawn",
              "type": "uint256"
            },
            {
              "internalType": "uint256",
              "name": "createdAt",
              "type": "uint256"
            },
            {
              "internalType": "bool",
              "name": "isCompleted",
              "type": "bool"
            },
            {
              "internalType": "uint256",
              "name": "endsAt",
              "type": "uint256"
            },
            {
              "internalType": "string",
              "name": "product",
              "type": "string"
            }
          ],
          "internalType": "struct CreatorEconomy.Milestone",
          "name": "",
          "type": "tuple"
        }
      ],
      "stateMutability": "view",
      "type": "function"
    },
    {
      "inputs": [
        {
          "internalType": "string",
          "name": "productId",
          "type": "string"
        },
        {
          "internalType": "string",
          "name": "identifier",
          "type": "string"
        }
      ],
      "name": "lockFunds",
      "outputs": [],
      "stateMutability": "payable",
      "type": "function"
    },
    {
      "inputs": [
        {
          "internalType": "uint256",
          "name": "amount",
          "type": "uint256"
        }
      ],
      "name": "ownersWithdrawl",
      "outputs": [],
      "stateMutability": "nonpayable",
      "type": "function"
    },
    {
      "inputs": [
        {
          "internalType": "bytes",
          "name": "",
          "type": "bytes"
        }
      ],
      "name": "performUpkeep",
      "outputs": [],
      "stateMutability": "nonpayable",
      "type": "function"
    }
  ],
  "transactionHash": "0xcb0b97685d799485f0d8d6e7e98ed1398f8e86d02d5f89e2f71075a184403d72",
  "args": [
    "0xf39Fd6e51aad88F6F4ce6aB8827279cffFb92266",
    259200,
    "10000000000000"
  ],
  "numDeployments": 1,
  "solcInputHash": "484b3cbef6da22442ce11f277e5dad9c",
  "bytecode": "0x60a060405234801561001057600080fd5b506040516142d43803806142d4833981810160405281019061003291906101a1565b600073ffffffffffffffffffffffffffffffffffffffff168373ffffffffffffffffffffffffffffffffffffffff16036100a1576040517f08c379a000000000000000000000000000000000000000000000000000000000815260040161009890610251565b60405180910390fd5b82600460006101000a81548173ffffffffffffffffffffffffffffffffffffffff021916908373ffffffffffffffffffffffffffffffffffffffff160217905550600060038190555042600781905550816080818152505080600881905550505050610271565b600080fd5b600073ffffffffffffffffffffffffffffffffffffffff82169050919050565b60006101388261010d565b9050919050565b6101488161012d565b811461015357600080fd5b50565b6000815190506101658161013f565b92915050565b6000819050919050565b61017e8161016b565b811461018957600080fd5b50565b60008151905061019b81610175565b92915050565b6000806000606084860312156101ba576101b9610108565b5b60006101c886828701610156565b93505060206101d98682870161018c565b92505060406101ea8682870161018c565b9150509250925092565b600082825260208201905092915050565b7f496e76616c696420706c6174666f726d2077616c6c6574000000000000000000600082015250565b600061023b6017836101f4565b915061024682610205565b602082019050919050565b6000602082019050818103600083015261026a8161022e565b9050919050565b60805161404861028c60003960006115f301526140486000f3fe6080604052600436106100e85760003560e01c8063590791f21161008a57806398d5fdca1161005957806398d5fdca146102f3578063a4770a881461031e578063ba4be20b14610349578063ffcd186a14610365576100e8565b8063590791f2146102365780636c9230db146102615780636e04ff0d1461028c5780638dd8fc0e146102ca576100e8565b806312065fe0116100c657806312065fe01461017c57806315a857cc146101a75780634585e33b146101e45780634e2de6731461020d576100e8565b8063019b61ed146100ed57806302ec06be1461012a57806304afe05f14610153575b600080fd5b3480156100f957600080fd5b50610114600480360381019061010f91906129e6565b61038e565b6040516101219190612be8565b60405180910390f35b34801561013657600080fd5b50610151600480360381019061014c91906129e6565b610506565b005b34801561015f57600080fd5b5061017a60048036038101906101759190612c36565b610b24565b005b34801561018857600080fd5b50610191610c6b565b60405161019e9190612d75565b60405180910390f35b3480156101b357600080fd5b506101ce60048036038101906101c991906129e6565b610dfb565b6040516101db9190612e83565b60405180910390f35b3480156101f057600080fd5b5061020b60048036038101906102069190612f05565b610f17565b005b34801561021957600080fd5b50610234600480360381019061022f9190612c36565b6112fa565b005b34801561024257600080fd5b5061024b61150e565b6040516102589190612f61565b60405180910390f35b34801561026d57600080fd5b506102766115a8565b6040516102839190612f61565b60405180910390f35b34801561029857600080fd5b506102b360048036038101906102ae919061301d565b6115b0565b6040516102c19291906130ca565b60405180910390f35b3480156102d657600080fd5b506102f160048036038101906102ec91906129e6565b611698565b005b3480156102ff57600080fd5b50610308611cc5565b6040516103159190612f61565b60405180910390f35b34801561032a57600080fd5b50610333611cd4565b6040516103409190613180565b60405180910390f35b610363600480360381019061035e91906131a2565b611dad565b005b34801561037157600080fd5b5061038c60048036038101906103879190612c36565b612258565b005b6103966125d5565b6002826040516103a69190613256565b9081526020016040518091039020604051806101200160405290816000820160009054906101000a900473ffffffffffffffffffffffffffffffffffffffff1673ffffffffffffffffffffffffffffffffffffffff1673ffffffffffffffffffffffffffffffffffffffff16815260200160018201548152602001600282015481526020016003820154815260200160048201548152602001600582015481526020016006820160009054906101000a900460ff161515151581526020016007820154815260200160088201805461047d9061329c565b80601f01602080910402602001604051908101604052809291908181526020018280546104a99061329c565b80156104f65780601f106104cb576101008083540402835291602001916104f6565b820191906000526020600020905b8154815290600101906020018083116104d957829003601f168201915b5050505050815250509050919050565b6000600181111561051a576105196132cd565b5b600960009054906101000a900460ff16600181111561053c5761053b6132cd565b5b1461057c576040517f08c379a000000000000000000000000000000000000000000000000000000000815260040161057390613359565b60405180910390fd5b6105bb6040518060400160405280600a81526020017f70726f6475637420496400000000000000000000000000000000000000000000815250826124f3565b600073ffffffffffffffffffffffffffffffffffffffff166000826040516105e39190613256565b908152602001604051809103902060000160009054906101000a900473ffffffffffffffffffffffffffffffffffffffff1673ffffffffffffffffffffffffffffffffffffffff161461066b576040517f08c379a0000000000000000000000000000000000000000000000000000000008152600401610662906133c5565b60405180910390fd5b60068190806001815401808255809150506001900390600052602060002001600090919091909150908161069f9190613591565b50600073ffffffffffffffffffffffffffffffffffffffff16600160003373ffffffffffffffffffffffffffffffffffffffff1673ffffffffffffffffffffffffffffffffffffffff16815260200190815260200160002060000160009054906101000a900473ffffffffffffffffffffffffffffffffffffffff1673ffffffffffffffffffffffffffffffffffffffff160361093d5733600160003373ffffffffffffffffffffffffffffffffffffffff1673ffffffffffffffffffffffffffffffffffffffff16815260200190815260200160002060000160006101000a81548173ffffffffffffffffffffffffffffffffffffffff021916908373ffffffffffffffffffffffffffffffffffffffff1602179055506000600160003373ffffffffffffffffffffffffffffffffffffffff1673ffffffffffffffffffffffffffffffffffffffff16815260200190815260200160002060010181905550600160003373ffffffffffffffffffffffffffffffffffffffff1673ffffffffffffffffffffffffffffffffffffffff168152602001908152602001600020600201600061084d9190612639565b61088c6040518060400160405280601981526020017f70726f64756374204964206265666f72652070757368696e6700000000000000815250826124f3565b600160003373ffffffffffffffffffffffffffffffffffffffff1673ffffffffffffffffffffffffffffffffffffffff168152602001908152602001600020600201819080600181540180825580915050600190039060005260206000200160009091909190915090816109009190613591565b507faa66ab936168352c3ceec0936784009b98fff8330552a84dbec0ef7b8bcd6873336040516109309190613672565b60405180910390a16109ea565b600160003373ffffffffffffffffffffffffffffffffffffffff1673ffffffffffffffffffffffffffffffffffffffff168152602001908152602001600020600201819080600181540180825580915050600190039060005260206000200160009091909190915090816109b19190613591565b507f13bc0fcf14f8f3ca0cb562786d0618c57a13e52bbdb4c041763d96acbfa07624336040516109e19190613672565b60405180910390a15b60008067ffffffffffffffff811115610a0657610a056128bb565b5b604051908082528060200260200182016040528015610a345781602001602082028036833780820191505090505b50905060405180604001604052803373ffffffffffffffffffffffffffffffffffffffff16815260200182815250600083604051610a729190613256565b908152602001604051809103902060008201518160000160006101000a81548173ffffffffffffffffffffffffffffffffffffffff021916908373ffffffffffffffffffffffffffffffffffffffff1602179055506020820151816001019080519060200190610ae392919061265a565b509050507ff866739ea10ca100bc6c13c9c14f5d62f2bea1919a42d92e4bc3e98fbeba621e3383604051610b189291906136c6565b60405180910390a15050565b60006001811115610b3857610b376132cd565b5b600960009054906101000a900460ff166001811115610b5a57610b596132cd565b5b14610b9a576040517f08c379a0000000000000000000000000000000000000000000000000000000008152600401610b9190613359565b60405180910390fd5b3373ffffffffffffffffffffffffffffffffffffffff16600460009054906101000a900473ffffffffffffffffffffffffffffffffffffffff1673ffffffffffffffffffffffffffffffffffffffff1614610c2a576040517f08c379a0000000000000000000000000000000000000000000000000000000008152600401610c2190613768565b60405180910390fd5b806008819055507ff347ee99503bf19c028bd6b18f3c676e82a9bb5b2bb5225aebe0fd62fd6a0d1981604051610c609190612f61565b60405180910390a150565b610c736126e4565b600160003373ffffffffffffffffffffffffffffffffffffffff1673ffffffffffffffffffffffffffffffffffffffff1681526020019081526020016000206040518060600160405290816000820160009054906101000a900473ffffffffffffffffffffffffffffffffffffffff1673ffffffffffffffffffffffffffffffffffffffff1673ffffffffffffffffffffffffffffffffffffffff1681526020016001820154815260200160028201805480602002602001604051908101604052809291908181526020016000905b82821015610dee578382906000526020600020018054610d619061329c565b80601f0160208091040260200160405190810160405280929190818152602001828054610d8d9061329c565b8015610dda5780601f10610daf57610100808354040283529160200191610dda565b820191906000526020600020905b815481529060010190602001808311610dbd57829003601f168201915b505050505081526020019060010190610d42565b5050505081525050905090565b610e0361271b565b600082604051610e139190613256565b90815260200160405180910390206040518060400160405290816000820160009054906101000a900473ffffffffffffffffffffffffffffffffffffffff1673ffffffffffffffffffffffffffffffffffffffff1673ffffffffffffffffffffffffffffffffffffffff16815260200160018201805480602002602001604051908101604052809291908181526020018280548015610f0757602002820191906000526020600020905b8160009054906101000a900473ffffffffffffffffffffffffffffffffffffffff1673ffffffffffffffffffffffffffffffffffffffff1681526020019060010190808311610ebd575b5050505050815250509050919050565b6000610f31604051806020016040528060008152506115b0565b50905080610f74576040517f08c379a0000000000000000000000000000000000000000000000000000000008152600401610f6b906137d4565b60405180910390fd5b80610fe05747600580549050600960009054906101000a900460ff166001811115610fa257610fa16132cd565b5b6040517f50ca6743000000000000000000000000000000000000000000000000000000008152600401610fd7939291906137f4565b60405180910390fd5b6001600960006101000a81548160ff02191690836001811115611006576110056132cd565b5b021790555060006005805480602002602001604051908101604052809291908181526020016000905b828210156110db57838290600052602060002001805461104e9061329c565b80601f016020809104026020016040519081016040528092919081815260200182805461107a9061329c565b80156110c75780601f1061109c576101008083540402835291602001916110c7565b820191906000526020600020905b8154815290600101906020018083116110aa57829003601f168201915b50505050508152602001906001019061102f565b50505050905060006003549050600080835167ffffffffffffffff811115611106576111056128bb565b5b60405190808252806020026020018201604052801561113957816020015b60608152602001906001900390816111245790505b50905060005b84518110156111f857600085828151811061115d5761115c61382b565b5b6020026020010151905060006002826040516111799190613256565b9081526020016040518091039020905042816007015411156111c757818486815181106111a9576111a861382b565b5b602002602001018190525084806111bf90613889565b9550506111e9565b806004015481600201546111db91906138d1565b866111e69190613905565b95505b5050808060010191505061113f565b5080518210156112bf5760008267ffffffffffffffff81111561121e5761121d6128bb565b5b60405190808252806020026020018201604052801561125157816020015b606081526020019060019003908161123c5790505b50905060005b838110156112a5578281815181106112725761127161382b565b5b602002602001015182828151811061128d5761128c61382b565b5b60200260200101819052508080600101915050611257565b5080600590805190602001906112bc92919061274b565b50505b826003819055506000600960006101000a81548160ff021916908360018111156112ec576112eb6132cd565b5b021790555050505050505050565b6000600181111561130e5761130d6132cd565b5b600960009054906101000a900460ff1660018111156113305761132f6132cd565b5b14611370576040517f08c379a000000000000000000000000000000000000000000000000000000000815260040161136790613359565b60405180910390fd5b3373ffffffffffffffffffffffffffffffffffffffff16600460009054906101000a900473ffffffffffffffffffffffffffffffffffffffff1673ffffffffffffffffffffffffffffffffffffffff1614611400576040517f08c379a00000000000000000000000000000000000000000000000000000000081526004016113f790613768565b60405180910390fd5b606460466003546114119190613939565b61141b91906139aa565b81111561145d576040517f08c379a000000000000000000000000000000000000000000000000000000000815260040161145490613a27565b60405180910390fd5b3373ffffffffffffffffffffffffffffffffffffffff166108fc829081150290604051600060405180830381858888f193505050501580156114a3573d6000803e3d6000fd5b5080600360008282546114b691906138d1565b925050819055503373ffffffffffffffffffffffffffffffffffffffff167fd6f42bc80d79f51c5ffb3438f457e9355868cd0f02ccdd4d946494f962f4ac07826040516115039190612f61565b60405180910390a250565b60003373ffffffffffffffffffffffffffffffffffffffff16600460009054906101000a900473ffffffffffffffffffffffffffffffffffffffff1673ffffffffffffffffffffffffffffffffffffffff16146115a0576040517f08c379a000000000000000000000000000000000000000000000000000000000815260040161159790613768565b60405180910390fd5b600354905090565b600042905090565b600060606000600960009054906101000a900460ff1660018111156115d8576115d76132cd565b5b600060018111156115ec576115eb6132cd565b5b14905060007f00000000000000000000000000000000000000000000000000000000000000006007544261162091906138d1565b119050600080600580549050119050600080471190508280156116405750835b80156116495750805b80156116525750815b9550856040518060400160405280600381526020017f30783000000000000000000000000000000000000000000000000000000000008152509550955050505050915091565b600060018111156116ac576116ab6132cd565b5b600960009054906101000a900460ff1660018111156116ce576116cd6132cd565b5b1461170e576040517f08c379a000000000000000000000000000000000000000000000000000000000815260040161170590613359565b60405180910390fd5b803373ffffffffffffffffffffffffffffffffffffffff166002826040516117369190613256565b908152602001604051809103902060000160009054906101000a900473ffffffffffffffffffffffffffffffffffffffff1673ffffffffffffffffffffffffffffffffffffffff16146117be576040517f08c379a00000000000000000000000000000000000000000000000000000000081526004016117b590613ab9565b60405180910390fd5b60006002836040516117d09190613256565b908152602001604051809103902090506000816002015411611827576040517f08c379a000000000000000000000000000000000000000000000000000000000815260040161181e90613b25565b60405180910390fd5b428160070154101561186e576040517f08c379a000000000000000000000000000000000000000000000000000000000815260040161186590613b91565b60405180910390fd5b80600101548160030154106118b8576040517f08c379a00000000000000000000000000000000000000000000000000000000081526004016118af90613bfd565b60405180910390fd5b6000816001015482600201546118ce91906139aa565b90508160030160008154809291906118e590613889565b91905055508160010154826003015403611c085760006005805480602002602001604051908101604052809291908181526020016000905b828210156119c957838290600052602060002001805461193c9061329c565b80601f01602080910402602001604051908101604052809291908181526020018280546119689061329c565b80156119b55780601f1061198a576101008083540402835291602001916119b5565b820191906000526020600020905b81548152906001019060200180831161199857829003601f168201915b50505050508152602001906001019061191d565b5050505090506000600182516119df91906138d1565b67ffffffffffffffff8111156119f8576119f76128bb565b5b604051908082528060200260200182016040528015611a2b57816020015b6060815260200190600190039081611a165790505b5090506000805b8351811015611afe5787604051602001611a4c9190613256565b60405160208183030381529060405280519060200120848281518110611a7557611a7461382b565b5b6020026020010151604051602001611a8d9190613256565b6040516020818303038152906040528051906020012014611af157838181518110611abb57611aba61382b565b5b6020026020010151838381518110611ad657611ad561382b565b5b6020026020010181905250600182611aee9190613905565b91505b8080600101915050611a32565b508160059080519060200190611b1592919061274b565b50600085600401548660020154611b2c91906138d1565b905080866004016000828254611b429190613905565b9250508190555060018660060160006101000a81548160ff0219169083151502179055503373ffffffffffffffffffffffffffffffffffffffff166108fc829081150290604051600060405180830381858888f19350505050158015611bac573d6000803e3d6000fd5b503373ffffffffffffffffffffffffffffffffffffffff167fd867cfadc420a62f8ddbfaf0ee08af17bef908fdeb647de660511cebe642486c8760020154604051611bf79190612f61565b60405180910390a250505050611cbf565b80826004016000828254611c1c9190613905565b925050819055503373ffffffffffffffffffffffffffffffffffffffff166108fc829081150290604051600060405180830381858888f19350505050158015611c69573d6000803e3d6000fd5b503373ffffffffffffffffffffffffffffffffffffffff167ff43bfc498688ec8f5ca2efe35ba87cb7b4f33c139cb2dc8e3f795527e3f08ccc836003015483604051611cb6929190613c1d565b60405180910390a25b50505050565b60008060085490508091505090565b60606006805480602002602001604051908101604052809291908181526020016000905b82821015611da4578382906000526020600020018054611d179061329c565b80601f0160208091040260200160405190810160405280929190818152602001828054611d439061329c565b8015611d905780601f10611d6557610100808354040283529160200191611d90565b820191906000526020600020905b815481529060010190602001808311611d7357829003601f168201915b505050505081526020019060010190611cf8565b50505050905090565b60006001811115611dc157611dc06132cd565b5b600960009054906101000a900460ff166001811115611de357611de26132cd565b5b14611e23576040517f08c379a0000000000000000000000000000000000000000000000000000000008152600401611e1a90613359565b60405180910390fd5b600073ffffffffffffffffffffffffffffffffffffffff16600082604051611e4b9190613256565b908152602001604051809103902060000160009054906101000a900473ffffffffffffffffffffffffffffffffffffffff1673ffffffffffffffffffffffffffffffffffffffff1603611ed3576040517f08c379a0000000000000000000000000000000000000000000000000000000008152600401611eca90613c92565b60405180910390fd5b600854341015611f18576040517f08c379a0000000000000000000000000000000000000000000000000000000008152600401611f0f90613d24565b60405180910390fd5b6000600283604051611f2a9190613256565b90815260200160405180910390206002015414611f7c576040517f08c379a0000000000000000000000000000000000000000000000000000000008152600401611f7390613d90565b60405180910390fd5b600582908060018154018082558091505060019003906000526020600020016000909190919091509081611fb09190613591565b5060006064603234611fc29190613939565b611fcc91906139aa565b905060008134611fdc91906138d1565b9050600062093a8042611fef9190613905565b905082600160003373ffffffffffffffffffffffffffffffffffffffff1673ffffffffffffffffffffffffffffffffffffffff16815260200190815260200160002060010160008282546120439190613905565b9250508190555060008560405161205a9190613256565b9081526020016040518091039020600101339080600181540180825580915050600190039060005260206000200160009091909190916101000a81548173ffffffffffffffffffffffffffffffffffffffff021916908373ffffffffffffffffffffffffffffffffffffffff1602179055506040518061012001604052803373ffffffffffffffffffffffffffffffffffffffff168152602001600581526020018381526020016000815260200160008152602001428152602001600015158152602001828152602001858152506002866040516121389190613256565b908152602001604051809103902060008201518160000160006101000a81548173ffffffffffffffffffffffffffffffffffffffff021916908373ffffffffffffffffffffffffffffffffffffffff1602179055506020820151816001015560408201518160020155606082015181600301556080820151816004015560a0820151816005015560c08201518160060160006101000a81548160ff02191690831515021790555060e082015181600701556101008201518160080190816121ff9190613591565b509050503373ffffffffffffffffffffffffffffffffffffffff167f1423e2a671bcc71c56f3c3cb78e3c96473d3ca5eb061acd0b93d1d0a6617f658836040516122499190612f61565b60405180910390a25050505050565b6000600160003373ffffffffffffffffffffffffffffffffffffffff1673ffffffffffffffffffffffffffffffffffffffff168152602001908152602001600020905080600101548211156122e2576040517f08c379a00000000000000000000000000000000000000000000000000000000081526004016122d990613e22565b60405180910390fd5b8060000160009054906101000a900473ffffffffffffffffffffffffffffffffffffffff1673ffffffffffffffffffffffffffffffffffffffff163373ffffffffffffffffffffffffffffffffffffffff1614612374576040517f08c379a000000000000000000000000000000000000000000000000000000000815260040161236b90613e8e565b60405180910390fd5b3373ffffffffffffffffffffffffffffffffffffffff166108fc839081150290604051600060405180830381858888f193505050501580156123ba573d6000803e3d6000fd5b50818160010160008282546123cf91906138d1565b9250508190555080600160003373ffffffffffffffffffffffffffffffffffffffff1673ffffffffffffffffffffffffffffffffffffffff1681526020019081526020016000206000820160009054906101000a900473ffffffffffffffffffffffffffffffffffffffff168160000160006101000a81548173ffffffffffffffffffffffffffffffffffffffff021916908373ffffffffffffffffffffffffffffffffffffffff16021790555060018201548160010155600282018160020190805461249d9291906127a4565b509050503373ffffffffffffffffffffffffffffffffffffffff167f3418edea3cedd14ff3ff0e4b7a89699efa06ed87c31c8e3b75b2c6a020c68f2d836040516124e79190612f61565b60405180910390a25050565b61258b8282604051602401612509929190613eae565b6040516020818303038152906040527f4b5c4277000000000000000000000000000000000000000000000000000000007bffffffffffffffffffffffffffffffffffffffffffffffffffffffff19166020820180517bffffffffffffffffffffffffffffffffffffffffffffffffffffffff838183161783525050505061258f565b5050565b6125a68161259e6125a96125ca565b63ffffffff16565b50565b60006a636f6e736f6c652e6c6f679050600080835160208501845afa505050565b612801819050919050565b604051806101200160405280600073ffffffffffffffffffffffffffffffffffffffff168152602001600081526020016000815260200160008152602001600081526020016000815260200160001515815260200160008152602001606081525090565b5080546000825590600052602060002090810190612657919061280b565b50565b8280548282559060005260206000209081019282156126d3579160200282015b828111156126d25782518260006101000a81548173ffffffffffffffffffffffffffffffffffffffff021916908373ffffffffffffffffffffffffffffffffffffffff1602179055509160200191906001019061267a565b5b5090506126e0919061282f565b5090565b6040518060600160405280600073ffffffffffffffffffffffffffffffffffffffff16815260200160008152602001606081525090565b6040518060400160405280600073ffffffffffffffffffffffffffffffffffffffff168152602001606081525090565b828054828255906000526020600020908101928215612793579160200282015b828111156127925782518290816127829190613591565b509160200191906001019061276b565b5b5090506127a0919061280b565b5090565b8280548282559060005260206000209081019282156127f05760005260206000209182015b828111156127ef57828290816127df9190613efb565b50916001019190600101906127c9565b5b5090506127fd919061280b565b5090565b612809613fe3565b565b5b8082111561282b5760008181612822919061284c565b5060010161280c565b5090565b5b80821115612848576000816000905550600101612830565b5090565b5080546128589061329c565b6000825580601f1061286a5750612889565b601f016020900490600052602060002090810190612888919061282f565b5b50565b6000604051905090565b600080fd5b600080fd5b600080fd5b600080fd5b6000601f19601f8301169050919050565b7f4e487b7100000000000000000000000000000000000000000000000000000000600052604160045260246000fd5b6128f3826128aa565b810181811067ffffffffffffffff82111715612912576129116128bb565b5b80604052505050565b600061292561288c565b905061293182826128ea565b919050565b600067ffffffffffffffff821115612951576129506128bb565b5b61295a826128aa565b9050602081019050919050565b82818337600083830152505050565b600061298961298484612936565b61291b565b9050828152602081018484840111156129a5576129a46128a5565b5b6129b0848285612967565b509392505050565b600082601f8301126129cd576129cc6128a0565b5b81356129dd848260208601612976565b91505092915050565b6000602082840312156129fc576129fb612896565b5b600082013567ffffffffffffffff811115612a1a57612a1961289b565b5b612a26848285016129b8565b91505092915050565b600073ffffffffffffffffffffffffffffffffffffffff82169050919050565b6000612a5a82612a2f565b9050919050565b612a6a81612a4f565b82525050565b6000819050919050565b612a8381612a70565b82525050565b60008115159050919050565b612a9e81612a89565b82525050565b600081519050919050565b600082825260208201905092915050565b60005b83811015612ade578082015181840152602081019050612ac3565b60008484015250505050565b6000612af582612aa4565b612aff8185612aaf565b9350612b0f818560208601612ac0565b612b18816128aa565b840191505092915050565b600061012083016000830151612b3c6000860182612a61565b506020830151612b4f6020860182612a7a565b506040830151612b626040860182612a7a565b506060830151612b756060860182612a7a565b506080830151612b886080860182612a7a565b5060a0830151612b9b60a0860182612a7a565b5060c0830151612bae60c0860182612a95565b5060e0830151612bc160e0860182612a7a565b50610100830151848203610100860152612bdb8282612aea565b9150508091505092915050565b60006020820190508181036000830152612c028184612b23565b905092915050565b612c1381612a70565b8114612c1e57600080fd5b50565b600081359050612c3081612c0a565b92915050565b600060208284031215612c4c57612c4b612896565b5b6000612c5a84828501612c21565b91505092915050565b600081519050919050565b600082825260208201905092915050565b6000819050602082019050919050565b6000612c9b8383612aea565b905092915050565b6000602082019050919050565b6000612cbb82612c63565b612cc58185612c6e565b935083602082028501612cd785612c7f565b8060005b85811015612d135784840389528151612cf48582612c8f565b9450612cff83612ca3565b925060208a01995050600181019050612cdb565b50829750879550505050505092915050565b6000606083016000830151612d3d6000860182612a61565b506020830151612d506020860182612a7a565b5060408301518482036040860152612d688282612cb0565b9150508091505092915050565b60006020820190508181036000830152612d8f8184612d25565b905092915050565b600081519050919050565b600082825260208201905092915050565b6000819050602082019050919050565b6000612dcf8383612a61565b60208301905092915050565b6000602082019050919050565b6000612df382612d97565b612dfd8185612da2565b9350612e0883612db3565b8060005b83811015612e39578151612e208882612dc3565b9750612e2b83612ddb565b925050600181019050612e0c565b5085935050505092915050565b6000604083016000830151612e5e6000860182612a61565b5060208301518482036020860152612e768282612de8565b9150508091505092915050565b60006020820190508181036000830152612e9d8184612e46565b905092915050565b600080fd5b600080fd5b60008083601f840112612ec557612ec46128a0565b5b8235905067ffffffffffffffff811115612ee257612ee1612ea5565b5b602083019150836001820283011115612efe57612efd612eaa565b5b9250929050565b60008060208385031215612f1c57612f1b612896565b5b600083013567ffffffffffffffff811115612f3a57612f3961289b565b5b612f4685828601612eaf565b92509250509250929050565b612f5b81612a70565b82525050565b6000602082019050612f766000830184612f52565b92915050565b600067ffffffffffffffff821115612f9757612f966128bb565b5b612fa0826128aa565b9050602081019050919050565b6000612fc0612fbb84612f7c565b61291b565b905082815260208101848484011115612fdc57612fdb6128a5565b5b612fe7848285612967565b509392505050565b600082601f830112613004576130036128a0565b5b8135613014848260208601612fad565b91505092915050565b60006020828403121561303357613032612896565b5b600082013567ffffffffffffffff8111156130515761305061289b565b5b61305d84828501612fef565b91505092915050565b61306f81612a89565b82525050565b600081519050919050565b600082825260208201905092915050565b600061309c82613075565b6130a68185613080565b93506130b6818560208601612ac0565b6130bf816128aa565b840191505092915050565b60006040820190506130df6000830185613066565b81810360208301526130f18184613091565b90509392505050565b600082825260208201905092915050565b600061311682612c63565b61312081856130fa565b93508360208202850161313285612c7f565b8060005b8581101561316e578484038952815161314f8582612c8f565b945061315a83612ca3565b925060208a01995050600181019050613136565b50829750879550505050505092915050565b6000602082019050818103600083015261319a818461310b565b905092915050565b600080604083850312156131b9576131b8612896565b5b600083013567ffffffffffffffff8111156131d7576131d661289b565b5b6131e3858286016129b8565b925050602083013567ffffffffffffffff8111156132045761320361289b565b5b613210858286016129b8565b9150509250929050565b600081905092915050565b600061323082612aa4565b61323a818561321a565b935061324a818560208601612ac0565b80840191505092915050565b60006132628284613225565b915081905092915050565b7f4e487b7100000000000000000000000000000000000000000000000000000000600052602260045260246000fd5b600060028204905060018216806132b457607f821691505b6020821081036132c7576132c661326d565b5b50919050565b7f4e487b7100000000000000000000000000000000000000000000000000000000600052602160045260246000fd5b600082825260208201905092915050565b7f436f6e747261637420697320696e2055706b6565700000000000000000000000600082015250565b60006133436015836132fc565b915061334e8261330d565b602082019050919050565b6000602082019050818103600083015261337281613336565b9050919050565b7f50726f6475637420416c72656164792045786973747300000000000000000000600082015250565b60006133af6016836132fc565b91506133ba82613379565b602082019050919050565b600060208201905081810360008301526133de816133a2565b9050919050565b60008190508160005260206000209050919050565b60006020601f8301049050919050565b600082821b905092915050565b6000600883026134477fffffffffffffffffffffffffffffffffffffffffffffffffffffffffffffffff8261340a565b613451868361340a565b95508019841693508086168417925050509392505050565b6000819050919050565b600061348e61348961348484612a70565b613469565b612a70565b9050919050565b6000819050919050565b6134a883613473565b6134bc6134b482613495565b848454613417565b825550505050565b600090565b6134d16134c4565b6134dc81848461349f565b505050565b5b81811015613500576134f56000826134c9565b6001810190506134e2565b5050565b601f82111561354557613516816133e5565b61351f846133fa565b8101602085101561352e578190505b61354261353a856133fa565b8301826134e1565b50505b505050565b600082821c905092915050565b60006135686000198460080261354a565b1980831691505092915050565b60006135818383613557565b9150826002028217905092915050565b61359a82612aa4565b67ffffffffffffffff8111156135b3576135b26128bb565b5b6135bd825461329c565b6135c8828285613504565b600060209050601f8311600181146135fb57600084156135e9578287015190505b6135f38582613575565b86555061365b565b601f198416613609866133e5565b60005b828110156136315784890151825560018201915060208501945060208101905061360c565b8683101561364e578489015161364a601f891682613557565b8355505b6001600288020188555050505b505050505050565b61366c81612a4f565b82525050565b60006020820190506136876000830184613663565b92915050565b600061369882612aa4565b6136a281856132fc565b93506136b2818560208601612ac0565b6136bb816128aa565b840191505092915050565b60006040820190506136db6000830185613663565b81810360208301526136ed818461368d565b90509392505050565b7f4f6e6c792074686520706c6174666f726d2077616c6c65742063616e2070657260008201527f666f726d207468697320616374696f6e00000000000000000000000000000000602082015250565b60006137526030836132fc565b915061375d826136f6565b604082019050919050565b6000602082019050818103600083015261378181613745565b9050919050565b7f55706b656570206e6f74206e6565646564000000000000000000000000000000600082015250565b60006137be6011836132fc565b91506137c982613788565b602082019050919050565b600060208201905081810360008301526137ed816137b1565b9050919050565b60006060820190506138096000830186612f52565b6138166020830185612f52565b6138236040830184612f52565b949350505050565b7f4e487b7100000000000000000000000000000000000000000000000000000000600052603260045260246000fd5b7f4e487b7100000000000000000000000000000000000000000000000000000000600052601160045260246000fd5b600061389482612a70565b91507fffffffffffffffffffffffffffffffffffffffffffffffffffffffffffffffff82036138c6576138c561385a565b5b600182019050919050565b60006138dc82612a70565b91506138e783612a70565b92508282039050818111156138ff576138fe61385a565b5b92915050565b600061391082612a70565b915061391b83612a70565b92508282019050808211156139335761393261385a565b5b92915050565b600061394482612a70565b915061394f83612a70565b925082820261395d81612a70565b915082820484148315176139745761397361385a565b5b5092915050565b7f4e487b7100000000000000000000000000000000000000000000000000000000600052601260045260246000fd5b60006139b582612a70565b91506139c083612a70565b9250826139d0576139cf61397b565b5b828204905092915050565b7f416d6f756e74206578636565647320636f6c6c65637461626c652066756e6473600082015250565b6000613a116020836132fc565b9150613a1c826139db565b602082019050919050565b60006020820190508181036000830152613a4081613a04565b9050919050565b7f4f6e6c79207468652063726561746f722077616c6c65742063616e207065726660008201527f6f726d207468697320616374696f6e0000000000000000000000000000000000602082015250565b6000613aa3602f836132fc565b9150613aae82613a47565b604082019050919050565b60006020820190508181036000830152613ad281613a96565b9050919050565b7f4e6f2066756e6473206c6f636b65640000000000000000000000000000000000600082015250565b6000613b0f600f836132fc565b9150613b1a82613ad9565b602082019050919050565b60006020820190508181036000830152613b3e81613b02565b9050919050565b7f4d696c6573746f6e652045787069726564000000000000000000000000000000600082015250565b6000613b7b6011836132fc565b9150613b8682613b45565b602082019050919050565b60006020820190508181036000830152613baa81613b6e565b9050919050565b7f416c6c206d696c6573746f6e657320616c726561647920636f6d706c65746564600082015250565b6000613be76020836132fc565b9150613bf282613bb1565b602082019050919050565b60006020820190508181036000830152613c1681613bda565b9050919050565b6000604082019050613c326000830185612f52565b613c3f6020830184612f52565b9392505050565b7f4e6f2061727469636c6573206578697374000000000000000000000000000000600082015250565b6000613c7c6011836132fc565b9150613c8782613c46565b602082019050919050565b60006020820190508181036000830152613cab81613c6f565b9050919050565b7f53656e7420616d6f756e74206d75737420626520686967686572207468616e2060008201527f656e747279206665650000000000000000000000000000000000000000000000602082015250565b6000613d0e6029836132fc565b9150613d1982613cb2565b604082019050919050565b60006020820190508181036000830152613d3d81613d01565b9050919050565b7f5573657220616c7265616479206c6f636b65642066756e647300000000000000600082015250565b6000613d7a6019836132fc565b9150613d8582613d44565b602082019050919050565b60006020820190508181036000830152613da981613d6d565b9050919050565b7f416d6f756e74206578636565647320636f6c6c6563746561626c65732066756e60008201527f6473000000000000000000000000000000000000000000000000000000000000602082015250565b6000613e0c6022836132fc565b9150613e1782613db0565b604082019050919050565b60006020820190508181036000830152613e3b81613dff565b9050919050565b7f416d6f756e74206578636565647320636f6c6c65637465642066756e64730000600082015250565b6000613e78601e836132fc565b9150613e8382613e42565b602082019050919050565b60006020820190508181036000830152613ea781613e6b565b9050919050565b60006040820190508181036000830152613ec8818561368d565b90508181036020830152613edc818461368d565b90509392505050565b600081549050613ef48161329c565b9050919050565b818103613f09575050613fe1565b613f1282613ee5565b67ffffffffffffffff811115613f2b57613f2a6128bb565b5b613f35825461329c565b613f40828285613504565b6000601f831160018114613f6f5760008415613f5d578287015490505b613f678582613575565b865550613fda565b601f198416613f7d876133e5565b9650613f88866133e5565b60005b82811015613fb057848901548255600182019150600185019450602081019050613f8b565b86831015613fcd5784890154613fc9601f891682613557565b8355505b6001600288020188555050505b5050505050505b565b7f4e487b7100000000000000000000000000000000000000000000000000000000600052605160045260246000fdfea26469706673582212200f25af5d948d1b5823a0d80aa8168fad48d6ddd7d82c5ae3cbbac74f1a9397c764736f6c634300081c0033",
  "devdoc": {
    "kind": "dev",
    "methods": {},
    "version": 1
  },
  "userdoc": {
    "kind": "user",
    "methods": {},
    "version": 1
  },
  "storageLayout": {
    "storage": [
      {
        "astId": 73,
        "contract": "contracts/CreatorEconomy.sol:CreatorEconomy",
        "label": "identifiers",
        "offset": 0,
        "slot": "0",
        "type": "t_mapping(t_string_memory_ptr,t_struct(Product_identifiers)41_storage)"
      },
      {
        "astId": 78,
        "contract": "contracts/CreatorEconomy.sol:CreatorEconomy",
        "label": "balances",
        "offset": 0,
        "slot": "1",
        "type": "t_mapping(t_address,t_struct(Creator_balance)49_storage)"
      },
      {
        "astId": 83,
        "contract": "contracts/CreatorEconomy.sol:CreatorEconomy",
        "label": "products",
        "offset": 0,
        "slot": "2",
        "type": "t_mapping(t_string_memory_ptr,t_struct(Milestone)68_storage)"
      },
      {
        "astId": 94,
        "contract": "contracts/CreatorEconomy.sol:CreatorEconomy",
        "label": "owner_balance",
        "offset": 0,
        "slot": "3",
        "type": "t_uint256"
      },
      {
        "astId": 96,
        "contract": "contracts/CreatorEconomy.sol:CreatorEconomy",
        "label": "platformWallet",
        "offset": 0,
        "slot": "4",
        "type": "t_address"
      },
      {
        "astId": 99,
        "contract": "contracts/CreatorEconomy.sol:CreatorEconomy",
        "label": "activeMilestones",
        "offset": 0,
        "slot": "5",
        "type": "t_array(t_string_storage)dyn_storage"
      },
      {
        "astId": 102,
        "contract": "contracts/CreatorEconomy.sol:CreatorEconomy",
        "label": "activeIdentifiers",
        "offset": 0,
        "slot": "6",
        "type": "t_array(t_string_storage)dyn_storage"
      },
      {
        "astId": 106,
        "contract": "contracts/CreatorEconomy.sol:CreatorEconomy",
        "label": "s_lastTimeStamp",
        "offset": 0,
        "slot": "7",
        "type": "t_uint256"
      },
      {
        "astId": 108,
        "contract": "contracts/CreatorEconomy.sol:CreatorEconomy",
        "label": "s_milestone_price",
        "offset": 0,
        "slot": "8",
        "type": "t_uint256"
      },
      {
        "astId": 161,
        "contract": "contracts/CreatorEconomy.sol:CreatorEconomy",
        "label": "s_milestoneState",
        "offset": 0,
        "slot": "9",
        "type": "t_enum(MileStoneState)35"
      }
    ],
    "types": {
      "t_address": {
        "encoding": "inplace",
        "label": "address",
        "numberOfBytes": "20"
      },
      "t_array(t_address)dyn_storage": {
        "base": "t_address",
        "encoding": "dynamic_array",
        "label": "address[]",
        "numberOfBytes": "32"
      },
      "t_array(t_string_storage)dyn_storage": {
        "base": "t_string_storage",
        "encoding": "dynamic_array",
        "label": "string[]",
        "numberOfBytes": "32"
      },
      "t_bool": {
        "encoding": "inplace",
        "label": "bool",
        "numberOfBytes": "1"
      },
      "t_enum(MileStoneState)35": {
        "encoding": "inplace",
        "label": "enum CreatorEconomy.MileStoneState",
        "numberOfBytes": "1"
      },
      "t_mapping(t_address,t_struct(Creator_balance)49_storage)": {
        "encoding": "mapping",
        "key": "t_address",
        "label": "mapping(address => struct CreatorEconomy.Creator_balance)",
        "numberOfBytes": "32",
        "value": "t_struct(Creator_balance)49_storage"
      },
      "t_mapping(t_string_memory_ptr,t_struct(Milestone)68_storage)": {
        "encoding": "mapping",
        "key": "t_string_memory_ptr",
        "label": "mapping(string => struct CreatorEconomy.Milestone)",
        "numberOfBytes": "32",
        "value": "t_struct(Milestone)68_storage"
      },
      "t_mapping(t_string_memory_ptr,t_struct(Product_identifiers)41_storage)": {
        "encoding": "mapping",
        "key": "t_string_memory_ptr",
        "label": "mapping(string => struct CreatorEconomy.Product_identifiers)",
        "numberOfBytes": "32",
        "value": "t_struct(Product_identifiers)41_storage"
      },
      "t_string_memory_ptr": {
        "encoding": "bytes",
        "label": "string",
        "numberOfBytes": "32"
      },
      "t_string_storage": {
        "encoding": "bytes",
        "label": "string",
        "numberOfBytes": "32"
      },
      "t_struct(Creator_balance)49_storage": {
        "encoding": "inplace",
        "label": "struct CreatorEconomy.Creator_balance",
        "members": [
          {
            "astId": 43,
            "contract": "contracts/CreatorEconomy.sol:CreatorEconomy",
            "label": "creator",
            "offset": 0,
            "slot": "0",
            "type": "t_address"
          },
          {
            "astId": 45,
            "contract": "contracts/CreatorEconomy.sol:CreatorEconomy",
            "label": "balance",
            "offset": 0,
            "slot": "1",
            "type": "t_uint256"
          },
          {
            "astId": 48,
            "contract": "contracts/CreatorEconomy.sol:CreatorEconomy",
            "label": "identifier_list",
            "offset": 0,
            "slot": "2",
            "type": "t_array(t_string_storage)dyn_storage"
          }
        ],
        "numberOfBytes": "96"
      },
      "t_struct(Milestone)68_storage": {
        "encoding": "inplace",
        "label": "struct CreatorEconomy.Milestone",
        "members": [
          {
            "astId": 51,
            "contract": "contracts/CreatorEconomy.sol:CreatorEconomy",
            "label": "creator",
            "offset": 0,
            "slot": "0",
            "type": "t_address"
          },
          {
            "astId": 53,
            "contract": "contracts/CreatorEconomy.sol:CreatorEconomy",
            "label": "totalMilestones",
            "offset": 0,
            "slot": "1",
            "type": "t_uint256"
          },
          {
            "astId": 55,
            "contract": "contracts/CreatorEconomy.sol:CreatorEconomy",
            "label": "totalAmount",
            "offset": 0,
            "slot": "2",
            "type": "t_uint256"
          },
          {
            "astId": 57,
            "contract": "contracts/CreatorEconomy.sol:CreatorEconomy",
            "label": "milestoneCompleted",
            "offset": 0,
            "slot": "3",
            "type": "t_uint256"
          },
          {
            "astId": 59,
            "contract": "contracts/CreatorEconomy.sol:CreatorEconomy",
            "label": "amountWithdrawn",
            "offset": 0,
            "slot": "4",
            "type": "t_uint256"
          },
          {
            "astId": 61,
            "contract": "contracts/CreatorEconomy.sol:CreatorEconomy",
            "label": "createdAt",
            "offset": 0,
            "slot": "5",
            "type": "t_uint256"
          },
          {
            "astId": 63,
            "contract": "contracts/CreatorEconomy.sol:CreatorEconomy",
            "label": "isCompleted",
            "offset": 0,
            "slot": "6",
            "type": "t_bool"
          },
          {
            "astId": 65,
            "contract": "contracts/CreatorEconomy.sol:CreatorEconomy",
            "label": "endsAt",
            "offset": 0,
            "slot": "7",
            "type": "t_uint256"
          },
          {
            "astId": 67,
            "contract": "contracts/CreatorEconomy.sol:CreatorEconomy",
            "label": "product",
            "offset": 0,
            "slot": "8",
            "type": "t_string_storage"
          }
        ],
        "numberOfBytes": "288"
      },
      "t_struct(Product_identifiers)41_storage": {
        "encoding": "inplace",
        "label": "struct CreatorEconomy.Product_identifiers",
        "members": [
          {
            "astId": 37,
            "contract": "contracts/CreatorEconomy.sol:CreatorEconomy",
            "label": "creator",
            "offset": 0,
            "slot": "0",
            "type": "t_address"
          },
          {
            "astId": 40,
            "contract": "contracts/CreatorEconomy.sol:CreatorEconomy",
            "label": "fans",
            "offset": 0,
            "slot": "1",
            "type": "t_array(t_address)dyn_storage"
          }
        ],
        "numberOfBytes": "64"
      },
      "t_uint256": {
        "encoding": "inplace",
        "label": "uint256",
        "numberOfBytes": "32"
      }
    }
  }
}